:10098900000E1B7F7F1B0E0000040C187F7F1B0EBF
:1009990000080C057F7F1E0CC00041221A7C7D1ABD
:1009A900006061120A7E7F0800060E080B3E3E0BAE
:1009B90000030B080B3E3E0B00060E08093F3E0BD9
:1009C900000E137E7E1F0E0008137E7E121D0C0082
:1009D90009127E7F1013030009127E7F101C0C0080
:1009E900000C157E7E170E000030380D7E7F1D0825
:1009F900C0C0301B7C7F0800000037F8FA340000C3
:100A090000001B7C7C1A01000000091E7C7F180075
:100A190000001B7C7C1B00000000091E7C7F180065
:100A290000001B7C7C1B00000810167C7F1008004E
:100A39000010137C7E1800000008137C7F10100042
:100A4900000812FCFD3A0000000812FCFC2210000C
:100A5900000061127C7F106000002011127C7E1959
:100A6900000000310A7C7E0D00002011127C7E19E5
:100A7900000000310A7C7E0D00002011127C7E19D5
:100A8900000000310A7C7E0D00002011127C7E19C5
:080A9900000000310A7C7E0D13
:100B2D002030280000000000000000FF080808FF2A
:100B3D00000E15151508007E0102007E0102000E43
:100B4D0011110E007D0000000000000000000000EB
:100B5D000000002020083C2444525B4B930AC23C09
:100B6D00181C624243434342423C183C42422343D9
:100B7D004342422C181810583C42B58383B5423C71
:080B8D003C42B38585B3423CF4
:100B9600E4F56B120C78E4F568E568256BFFE43341
:100BA600FE74892FF58274093EF583E493FD7C007B
:100BB600AF68120C090568E568C3940840DB056A4E
:100BC600E56AD3940F40CFE4F56A7408256BF56B9C
:0E0BD600C39410748094A740BDE4F56B80B802
:100C4600EF1FAC0670011E4C600A7D027CEFDCFED5
:040C5600DDFC80EC55
:010C5A002277
:10080000E4F56C7590FFC2932097137F14FE120CD1
:10081000463097FD7F147E00120C46756C012096C1
:10082000147F147E00120C463096FD7F147E001259
:100830000C46756C052095147F147E00120C463012
:1008400095FD7F147E00120C46756C092094147F70
:10085000147E00120C463094FD7F147E00120C466C
:10086000756C0D7590FFC2922097147F147E001254
:100870000C463097FD7F147E00120C46756C0220EA
:1008800096147F147E00120C463096FD7F147E0075
:10089000120C46756C062095147F147E00120C46CF
:1008A0003095FD7F147E00120C46756C0A2094145E
:1008B0007F147E00120C463094FD7F147E00120CD3
:1008C00046756C0E7590FFC2912097147F147E00C0
:1008D000120C463097FD7F147E00120C46756C0397
:1008E0002096147F147E00120C463096FD7F147EF5
:1008F00000120C46756C072095147F147E00120CB4
:10090000463095FD7F147E00120C46756C0B2094CA
:10091000147F147E00120C463094FD7F147E00126A
:100920000C46756C0F7590FFC2902097147F147E53
:1009300000120C463097FD7F147E00120C46756C39
:10094000042096147F147E00120C463096FD7F140E
:100950007E00120C46756C082095147F147E0012E0
:100960000C463095FD7F147E00120C46756C0C20F1
:1009700094147F147E00120C463094FD7F147E0088
:08098000120C46756C10AF6CFF
:01098800224C
:100C5B005389F0438901758A18758CFCC28DD28C2F
:050C6B00D2A9D2AF2266
:100C2B0075985043878053890F438920758BF375D3
:0B0C3B008DF3C2ABD28ED2AFD2AC2240
:080C70008F993099FDC2992211
:100BE400EFF4F5A0E4FEC374079EFDEFA8050880AA
:100BF40002C313D8FC1392B4D2B6C2B60EBE08E632
:040C0400D2B5C2B5EE
:010C080022C9
:050C7800C2B6C2B52266
:100C0900AB07AF05120BE4AF037480A80708800295
:100C1900C313D8FCF4F5807F017E00120C46758061
:020C2900FF22A8
:03000000020AA150
:0C0AA100787FE4F6D8FD75816C020AE84D
:100AAD00020B96E493A3F8E493A34003F68001F2BE
:100ABD0008DFF48029E493A3F85407240CC8C3334A
:100ACD00C4540F4420C8834004F456800146F6DF19
:100ADD00E4800B0102040810204080900B2DE47E71
:100AED00019360BCA3FF543F30E509541FFEE4930E
:100AFD00A360010ECF54C025E060A840B8E493A3D5
:100B0D00FAE493A3F8E493A3C8C582C8CAC583CAFF
:100B1D00F0A3C8C582C8CAC583CADFE9DEE780BEB7
:010B9500005F
:00000001FF
