:0B0F510041444A204E54432052470008
:100B2700120F157BFF7A0F79517D017F01120D5747
:100B37007F9C120A568E448F45752203AB45AA4403
:100B47007D017F02120DFE7FDC120A568E448F450F
:100B5700752203AB45AA447D057F02120DFE7FACCB
:100B6700120A568E448F45752203AB45AA447D0968
:0E0B77007F02120DFE7F0A7E00120EEB80B28E
:100EEB00EF1FAC0670011E4C600A7D027CEFDCFE2E
:040EFB00DDFC80ECAE
:010EFF0022D0
:050FB100AF40E4F54033
:010FB6002218
:100C9E00E4FF20B1087F14FE120EEB7F0120B00995
:100CAE007F147E00120EEB7F0220B2097F147E00AD
:100CBE00120EEB7F0320B3097F147E00120EEB7F22
:010CCE000421
:010CCF002202
:100B8500853E3F120C9E8F3EE53FB40107E53E7062
:100B950003754001E53FB40207E53E700375400269
:100BA500E53FB40307E53E7003754003E53FB40434
:0A0BB50007E53E7003754004AF40F1
:010BBF002213
:060F2900C2A58F80D2A7D3
:080F2F007F027EEFDEFEDFFC15
:010F37002297
:0A0F5C00C2A6120F29C2A7020F2F30
:100DE000CFCDCFCECCCE1209677C007D0A12096729
:040DF000ED2430FFBF
:0A0DF400D2A6120F29C2A7020F2F8A
:100ED500AE07BE0104ED148006BE0209ED243F44B1
:060EE50080FF120F5C22E9
:100F15007F38120F5C7F0C120F5C7F06120F5C7F0F
:040F250001020F5C5A
:0A0F6600AC03120ED5AF04020DF427
:060D57008B1E8A1F89209B
:100D5D00120ED5E4FDAB1EAA1FA9208D827583004E
:0C0D6D00120928FF6006120DF40D80E949
:010D79002257
:0C0C6B007F0AEA24FFFDE434FFFC7E0059
:080C77008E238F248C258D26AD
:100C7F007F017E00E4FBEBC39526E5256480F874C5
:0E0C8F008098500AAC23AD241209550B80E862
:010C9D002234
:040DFE008A208B219B
:100E0200120ED5AA22EAD39400400D120C6BAC202C
:080E1200AD21120DE01A80ED84
:010E1A0022B5
:100BC000120ED5C3EA64809480400B7F2B120DF483
:100BD0008A2C8B2D800E7F2D120DF4C3E49BF52DF6
:100BE000E49AF52CAA2BEAD39400400D120C6BACBE
:090BF0002CAD2D120DE01A80ED70
:010BF90022D9
:040BFA008A368B3775
:100BFE00120ED5AA38EAD3940040297F10120C6D3C
:100C0E00AC36AD37CFCDCFCECCCE120967EF540F69
:100C1E00FEC3940AEE5004243080022437FF120DD6
:040C2E00F41A80D163
:010C3200229F
:040C33008A3B8B3C31
:100C3700120ED5AA3DEAD394004028EA24FFFDE42A
:100C470034FFFC7F027E00120C77AC3BAD3CCFCD6E
:100C5700CFCECCCE120967EF54012430FF120DF42A
:030C67001A80D21E
:010C6A002267
:090F9800D2A0D2A1C2A0C2A12284
:070FAA00C2A0D2A1D2A022D7
:020D2C00AD0711
:100D2E00E4FC74807E00A804088006CEA2E713CEF1
:100D3E0013D8F8FFEDFBEF5B6003D38001C392A0E5
:080D4E00D2A1C2A10CBC08DA1D
:010D5600227A
:100EBD00E4FFD2A0FEEF25E0FFD2A130A00343074F
:070ECD0001C2A10EBE08EEF8
:010ED40022FB
:0A0F7000EF24FF92A0D2A1C2A1223B
:0B0F4500D2A0D2A1A2A0E433FFC2A101
:010F5000227E
:100D9D008F468D47120F987FA0120D2C120F45AF65
:100DAD0046120D2C120F45AF47120D2C120F450296
:020DBD000FAA7B
:020CD0008F484B
:100CD200120F987FA0120D2C120F45AF48120D2C47
:100CE200120F45120F987FA1120D2C120F45120EF2
:0D0CF200BD8F497F01120F70120FAAAF498C
:010CFF0022D2
:100F00005389F0438901758A9C758CFFC28DD28C00
:050F1000D2A9D2AF22BE
:0E0E1B000C123F065B4F666D7D077F6F004037
:090FA100AE0574092FF8A6062222
:100AC400EF14B408005054900AD975F003A4C583F8
:100AD40025F0C58373020AF1020AF5020AF9020A33
:100AE400FD020B01020B09020B11020B19D2A480A7
:100AF4000ED2A48012D2A48016D2A4801AC2A4D288
:100B0400A3D2A28016C2A4D2A3C2A2800EC2A4C23F
:100B1400A3D2A28006C2A4C2A3C2A274122DF8E674
:030B2400F5802237
:100E8B0074092508F8E6FDAF08120AC40508E50841
:080E9B00C3940940037508012E
:010EA300222C
:0D0F3800120DBF7FCC120EA47F44020EA448
:100D0000120DBF7FCC120EA47FBE120EA4120E389D
:100D10008F4A120E38EFFEE54AFFFDAC06EC1208D2
:0B0D2000A5E4FBFA798078411208037B
:010D2B0022A5
:100DBF00D2B7C2B77542F7D542FDD2B7754220D52B
:100DCF0042FDA2B7E433F5417542F7D542FDAF417D
:010DDF0022F1
:100E7100C2AFC2B7754204D542FDEF24FF92B775E8
:0A0E81004218D542FDD2B7D2AF22CD
:100E5500C2AFC2B77F02DFFED2B77F02DFFEA2B705
:0B0E6500E433FE7F18DFFED2AFAF06C3
:010E7000225F
:020EA400AE0797
:100EA600E4FD7401A805088002C333D8FC5EFF1276
:060EB6000E710DBD08ECF9
:010EBC002213
:100E3800E4FDFC120E55EF600D7401A80408800251
:0C0E4800C333D8FC42050CBC08E9AF0520
:010E5400227B
:0E0E290001330002310000022F0000012E00F4
:050FB700007FF7DFFEE2
:010FBC002212
:0A0F7A00C2A5E4F533F531F532228B
:0A0F84007533018E318F32D2A522A1
:0A0F8E00E4F533F531F532C2A52277
:100D7A00E533601E052EE52EC394014015E4F52ED9
:100D8A00E532153270021531E53245317004F5331A
:020D9A00C2A5F0
:010D9C002234
:020A5600AD07EA
:100A5800E4F51EF51FC2B5C2B6FB74807E00A8037C
:100A6800088006CEA2E713CE13D8F8FFEDF582EF83
:100A7800558224FF92B4D2B6C2B60BBB08DCE4FBA5
:100A8800D2B6C2B630B714E47E80A803088005CE7B
:100A9800C313CE13D8F9421FEE421E0BBB10E1D28E
:100AA800B5ED30E306E51EFF7E0022E51EC4F854CE
:0B0AB800F0C868FEE51FC4540F48FFA3
:010AC3002210
:1008000002091DEC5D046005E85904700302091338
:100810001208DE580460F6EC4860F2EC7004FDFE4D
:10082000FF22C860DB2481C85009C39860025006CB
:1008300002091A9850CAF582E9294B4A7005AB8221
:1008400002090975F0007C1A7880C3EF9BEE9AEDDF
:1008500099400DC3EF9BFFEE9AFEED99FDE842F043
:10086000DC23ACF0D0E0FFD0E0FED0E0FDAB822096
:10087000E7101BEB60BAEC2CFCEF33FFEE33FEED20
:1008800033FD0208F5E803F830E705C0F075F00025
:10089000EF2FFFEE33FEED33FD40B830E7C280AA04
:1008A00075F020800E75F010800575F0087D007ED3
:1008B000007F003392D530D5031209BCEC334010D1
:1008C000EF33FFEE33FEED33FDEC33FCD5F0ED22DC
:0E08D000E5F0247EA2D513CC92E7CDCEFF2218
:1008DE00E9D2E7C933E833F892D5EDD2E7CD33EC60
:0708EE0033FC5002B2D522D9
:1008F500EC30E7100FBF000C0EBE00080DBD000464
:100905000BEB6014A2D5EB13FCED92E7FD2274FF0F
:10091500FCFDFEFF22E480F8A2D574FF13FC7D8068
:03092500E480EF7C
:030000000209CA28
:0C09CA00787FE4F6D8FD75814A020A111E
:10092800BB010CE58229F582E5833AF583E0225084
:1009380006E92582F8E622BBFE06E92582F8E222CE
:0D094800E58229F582E5833AF583E49322E8
:10095500EF8DF0A4A8F0CF8CF0A428CE8DF0A42EB6
:02096500FE2270
:10096700BC000BBE0029EF8DF084FFADF022E4CC74
:10097700F875F008EF2FFFEE33FEEC33FCEE9DEC3D
:10098700984005FCEE9DFE0FD5F0E9E4CEFD22ED83
:10099700F8F5F0EE8420D21CFEADF075F008EF2FCD
:1009A700FFED33FD4007985006D5F0F222C398FDBE
:0509B7000FD5F0EA225B
:0E09BC00C3E49FFFE49EFEE49DFDE49CFC224C
:1009D600020B27E493A3F8E493A34003F68001F205
:1009E60008DFF48029E493A3F85407240CC8C33322
:1009F600C4540F4420C8834004F456800146F6DFF1
:100A0600E4800B0102040810204080900E1BE47E57
:100A1600019360BCA3FF543F30E509541FFEE493E5
:100A2600A360010ECF54C025E060A840B8E493A3AC
:100A3600FAE493A3F8E493A3C8C582C8CAC583CAD7
:100A4600F0A3C8C582C8CAC583CADFE9DEE780BE8F
:010E370000BA
:00000001FF
