:0C0F7F0048656C6C6F57726F6C64210049
:100A0000120F2C7B277D017F01120FC97B227D02F3
:100A10007F01120FC97B417D037F01120FC97B410A
:100A20007D047F01120FC97BFF7A0F797F7D017FE3
:100A300005120DC87521037BFF7D0D7F01120D1F6F
:100A40007522037BA87AFF7D0E7F01120BB87522F9
:100A5000027BA57A007D077F02120C0B7522087BB2
:100A6000A57A007D087F02120CBE7522087B1A7AD7
:100A7000007D097F02120CBE7BD67D0B7F02120F18
:100A8000C97BD97D0C7F02120FC97BBC7D0D7F0213
:100A9000120FC97BB67D0E7F02120FC97BDF7D016D
:100AA0007F02120FC97B437D027F02120FC97BFFB9
:100AB0007A0F797F7D017F01120DC87FF47E0112CC
:090AC0000F027F18120FBF80F233
:100F0200EF1FAC0670011E4C600A7D027CEFDCFE16
:040F1200DDFC80EC96
:010F160022B8
:050FEC00AF2EE4F52E1C
:010FF10022DD
:100C8C00E4FF20B1087F14FE120F027F0120B0098F
:100C9C007F147E00120F027F0220B2097F147E00A7
:100CAC00120F027F0320B3097F147E00120F027F04
:010CBC000433
:010CBD002214
:100C5100852C2D120C8C8F2CE52DB40107E52C7001
:100C610003752E01E52DB40207E52C7003752E02E4
:100C7100E52DB40307E52C7003752E03E52DB404AF
:0A0C810007E52C7003752E04AF2E5A
:010C8B002246
:090FD300D2A0D2A1C2A0C2A12249
:070FE500C2A0D2A1D2A0229C
:020D7A00AD07C3
:100D7C00E4FC74807E00A804088006CEA2E713CEA3
:100D8C0013D8F8FFEDFBEF5B6003D38001C392A097
:080D9C00D2A1C2A10CBC08DACF
:010DA400222C
:100EEA00E4FFD2A0FEEF25E0FFD2A130A003430722
:070EFA0001C2A10EBE08EECB
:010F010022CD
:0A0F9700EF24FF92A0D2A1C2A12214
:0B0F8B00D2A0D2A1A2A0E433FFC2A1BB
:010F96002238
:100DEB008F328D33120FD37FA0120D7A120F8BAF70
:100DFB0032120D7A120F8BAF33120D7A120F8B0248
:020E0B000FE5F1
:020CEF008F3440
:100CF100120FD37FA0120D7A120F8BAF34120D7A1F
:100D0100120F8B120FD37FA1120D7A120F8B120EBD
:0D0D1100EA8F357F01120F97120FE5AF3505
:010D1E0022B2
:100F17005389F0438901758A18758CFCC28DD28C70
:050F2700D2A9D2AF22A7
:0E0E2E000C123F065B4F666D7D077F6F004024
:090FDC00AE0574092FF8A60622E7
:100B5500EF14B408005054900B6A75F003A4C583D4
:100B650025F0C58373020B82020B86020B8A020BEA
:100B75008E020B92020B9A020BA2020BAAD2A48040
:100B85000ED2A48012D2A48016D2A4801AC2A4D2F6
:100B9500A3D2A28016C2A4D2A3C2A2800EC2A4C2AE
:100BA500A3D2A28006C2A4C2A3C2A274122DF8E6E3
:030BB500F58022A6
:100EB80074092508F8E6FDAF08120B550508E50882
:080EC800C39409400375080101
:010ED00022FF
:0D0F7200120E0D7FCC120ED17F44020ED165
:100D4E00120E0D7FCC120ED17FBE120ED1120E4B93
:100D5E008F36120E4BEFFEE536FFFDAC06EC120899
:0B0D6E00A5E4FBFA798078411208032D
:010D79002257
:100E0D00D2B7C2B77530F7D530FDD2B7753020D512
:100E1D0030FDA2B7E433F52F7530F7D530FDAF2F88
:010E2D0022A2
:100E8400C2AFC2B7753004D530FDEF24FF92B775F9
:0A0E94003018D530FDD2B7D2AF22DE
:100E6800C2AFC2B77F02DFFED2B77F02DFFEA2B7F2
:0B0E7800E433FE7F18DFFED2AFAF06B0
:010E8300224C
:020ED100AE076A
:100ED300E4FD7401A805088002C333D8FC5EFF1249
:060EE3000E840DBD08ECB9
:010EE90022E6
:100E4B00E4FDFC120E68EF600D7401A8040880022B
:0C0E5B00C333D8FC42050CBC08E9AF050D
:010E67002268
:0E0E3C00012B00022900000227000001260001
:050FF200007FF7DFFEA7
:010FF70022D7
:0A0FA100C2A5E4F52BF529F52A227C
:0A0FAB00752B018E298F2AD2A52292
:0A0FB500E4F52BF529F52AC2A52268
:100DA500E52B601E0526E526C394014015E4F526CE
:100DB500E52A152A70021529E52A45297004F52B1F
:020DC500C2A5C5
:010DC7002209
:060F6300C2A58F80D2A799
:080F69007F027EEFDEFEDFFCDB
:010F7100225D
:0A0FBF00C2A6120F63C2A7020F6959
:090F40007C001209BCED2430FF15
:0A0F4900D2A6120F63C2A7020F69BF
:100F2C007F38120FBF7F0C120FBF7F06120FBF7FCF
:040F3C0001020FBFE0
:100F5300EDBF0103148002243F4480FF120FBF2220
:0A0FC900AC03120F53AF04020F49EE
:060DC8008B1E8A1F89202A
:100DCE00120F53E4FDAB1EAA1FA9208D827583005E
:0C0DDE00120928FF6006120F490D80E981
:010DEA0022E6
:040E9E00AB05A907F0
:100EA2007F017E00E4FAEAC39B500AE9FD7C00124E
:050EB20009550A80F162
:010EB7002218
:020D1F008B2027
:100D2100120F53852122E522D39400401FE522149E
:100D3100FD7F0A120E9EAD207C00CFCDCFCECCCE52
:0C0D41001209BC7D0A120F40152280DA56
:010D4D002283
:100BB800120F53C3EA64809480400B7F2B120F49B5
:100BC8008A248B25800E7F2D120F49C3E49BF525BF
:100BD800E49AF524852223E523D394004024E523D1
:100BE80014FD7F0A120E9EAC24AD25CFCDCFCECCFE
:100BF800CE1209677C007D0A120967120F4515237A
:020C080080D595
:010C0A0022C7
:040C0B008A208B218F
:100C0F00120F53852223E523D394004034E5231498
:100C1F00FD7F10120E9EAC20AD21CFCDCFCECCCE0E
:100C2F001209BC7C007D101209BCAE05EEC3940AFC
:100C3F00EE5004243080022437FF120F4915238011
:010C4F00C5DF
:010C50002281
:040CBE008A208B21DC
:100CC200120F53852223E523D39400401FE52314FA
:100CD200FD7F02120E9EAC20AD21CFCDCFCECCCE69
:0C0CE2001209BC7D02120F40152380DABD
:010CEE0022E3
:1008000002091DEC5D046005E85904700302091338
:100810001208DE580460F6EC4860F2EC7004FDFE4D
:10082000FF22C860DB2481C85009C39860025006CB
:1008300002091A9850CAF582E9294B4A7005AB8221
:1008400002090975F0007C1A7880C3EF9BEE9AEDDF
:1008500099400DC3EF9BFFEE9AFEED99FDE842F043
:10086000DC23ACF0D0E0FFD0E0FED0E0FDAB822096
:10087000E7101BEB60BAEC2CFCEF33FFEE33FEED20
:1008800033FD0208F5E803F830E705C0F075F00025
:10089000EF2FFFEE33FEED33FD40B830E7C280AA04
:1008A00075F020800E75F010800575F0087D007ED3
:1008B000007F003392D530D5031209F2EC3340109B
:1008C000EF33FFEE33FEED33FDEC33FCD5F0ED22DC
:0E08D000E5F0247EA2D513CC92E7CDCEFF2218
:1008DE00E9D2E7C933E833F892D5EDD2E7CD33EC60
:0708EE0033FC5002B2D522D9
:1008F500EC30E7100FBF000C0EBE00080DBD000464
:100905000BEB6014A2D5EB13FCED92E7FD2274FF0F
:10091500FCFDFEFF22E480F8A2D574FF13FC7D8068
:03092500E480EF7C
:03000000020AC928
:0C0AC900787FE4F6D8FD758136020B1032
:10092800BB010CE58229F582E5833AF583E0225084
:1009380006E92582F8E622BBFE06E92582F8E222CE
:0D094800E58229F582E5833AF583E49322E8
:10095500EF8DF0A4A8F0CF8CF0A428CE8DF0A42EB6
:02096500FE2270
:10096700BC000BBE0029EF8DF084FFADF022E4CC74
:10097700F875F008EF2FFFEE33FEEC33FCEE9DEC3D
:10098700984005FCEE9DFE0FD5F0E9E4CEFD22ED83
:10099700F8F5F0EE8420D21CFEADF075F008EF2FCD
:1009A700FFED33FD4007985006D5F0F222C398FDBE
:0509B7000FD5F0EA225B
:1009BC00C2D5EC30E709B2D5E4C39DFDE49CFCEE56
:1009CC0030E715B2D5E4C39FFFE49EFE120967C35E
:1009DC00E49DFDE49CFC800312096730D507C3E459
:0609EC009FFFE49EFE22C5
:0E09F200C3E49FFFE49EFEE49DFDE49CFC2216
:100AD500020A00E493A3F8E493A34003F68001F22D
:100AE50008DFF48029E493A3F85407240CC8C33322
:100AF500C4540F4420C8834004F456800146F6DFF1
:100B0500E4800B0102040810204080900E2EE47E44
:100B1500019360BCA3FF543F30E509541FFEE493E5
:100B2500A360010ECF54C025E060A840B8E493A3AC
:100B3500FAE493A3F8E493A3C8C582C8CAC583CAD7
:100B4500F0A3C8C582C8CAC583CADFE9DEE780BE8F
:010E4A0000A7
:00000001FF
