:100C5F0050617373776F72643A00554E4C4F434B2C
:100C6F00212020202020004641554C455F5F202049
:050C7F002020202000F0
:100CE2007D017F01120C847FD07E07120D137BFFE2
:0B0CF2007A0C795F7D017F01020C8409
:100AA900E4F519F51AF51B120D287BFF7A0C795F0D
:100AB9007D017F01120C84120800AB07EB60F8C3BB
:100AC900940A50F3E51BC39404501FAE19AF1A7C66
:100AD900007D0A1209B68E198F1AEB75F00A84E5A2
:100AE900F0251AF51AE43519F519051BE51BB404A7
:100AF900C6E51AB4D20DE519B404087BFF7A0C795E
:100B09006980067BFF7A0C7976120CE2E4F51BF515
:050B190019F51A80A28D
:100D1300EF1FAC0670011E4C600A7D027CEFDCFE07
:040D2300DDFC80EC87
:010D270022A9
:0C0D4B000A083F065B4F666D7D077F6F56
:100B1E00EF14B408005054900B3375F003A4C58342
:100B2E0025F0C58373020B4B020B4F020B53020BC6
:100B3E0057020B5B020B63020B6B020B73D2A4808A
:100B4E000ED2A48012D2A48016D2A4801AC2A4D22D
:100B5E00A3D2A28016C2A4D2A3C2A2800EC2A4C2E5
:100B6E00A3D2A28006C2A4C2A3C2A274082DF8E624
:030B7E00F58022DD
:060D3C00C2A58F80D2A7C2
:080D42007F027EEFDEFEDFFC04
:010D4A002286
:0A0D5800C2A6120D3CC2A7020D4214
:100CA700CFCDCFCECCCE1209C87C007D0A1209C8A1
:040CB700ED2430FFF9
:0A0CBB00D2A6120D3CC2A7020D42A2
:100CFD00AE07BE0104ED148006BE0209ED243F448B
:060D0D0080FF120D5822C8
:100D28007F38120D587F0C120D587F06120D587F10
:040D380001020D584F
:0A0D6200AC03120CFDAF04020CBB41
:060C84008B1C8A1D891E75
:100C8A00120CFDE4FDAB1CAA1DA91E8D8275830002
:0C0C9A00120989FF6006120CBB0D80E9F6
:010CA600222B
:0C0C2C007F0AEA24FFFDE434FFFC7E0098
:080C38008E2E8F2F8C308D31C0
:100C40007F017E00E4FBEBC39531E5306480F874EE
:0E0C50008098500AAC2EAD2F1209B60B80E82A
:010C5E002273
:040CC5008A218B22D3
:100CC900120CFDAA23EAD39400400D120C2CAC217E
:080CD900AD22120CA71A80EDF8
:010CE10022F0
:100B8100120CFDC3EA64809480400B7F2B120CBBD6
:100B91008A178B18800E7F2D120CBBC3E49BF518AE
:100BA100E49AF517AA16EAD39400400D120C2CAC66
:090BB10017AD18120CA71A80ED13
:010BBA002218
:040BBB008A268B27D4
:100BBF00120CFDAA28EAD3940040297F10120C2EA4
:100BCF00AC26AD27CFCDCFCECCCE1209C8EF540F68
:100BDF00FEC3940AEE5004243080022437FF120C17
:040BEF00BB1A80D1DC
:010BF30022DF
:040BF4008A2B8B2C91
:100BF800120CFDAA2DEAD394004028EA24FFFDE454
:100C080034FFFC7F027E00120C38AC2BAD2CCFCD0C
:100C1800CFCECCCE1209C8EF54012430FF120CBB42
:030C28001A80D25D
:010C2B0022A6
:10080000E4F51C7590FFC2932097137F14FE120D20
:10081000133097FD7F147E00120D13751C01209676
:10082000147F147E00120D133096FD7F147E00128B
:100830000D13751C052095147F147E00120D1330C6
:1008400095FD7F147E00120D13751C092094147FF2
:10085000147E00120D133094FD7F147E00120D13D0
:10086000751C0D7590FFC2922097147F147E0012A4
:100870000D133097FD7F147E00120D13751C02209E
:1008800096147F147E00120D133096FD7F147E00A7
:10089000120D13751C062095147F147E00120D1383
:1008A0003095FD7F147E00120D13751C0A209414E0
:1008B0007F147E00120D133094FD7F147E00120D04
:1008C00013751C0E7590FFC2912097147F147E0043
:1008D000120D133097FD7F147E00120D13751C034B
:1008E0002096147F147E00120D133096FD7F147E27
:1008F00000120D13751C072095147F147E00120D35
:10090000133095FD7F147E00120D13751C0B20947F
:10091000147F147E00120D133094FD7F147E00129C
:100920000D13751C0F7590FFC2902097147F147ED5
:1009300000120D133097FD7F147E00120D13751CED
:10094000042096147F147E00120D133096FD7F1440
:100950007E00120D13751C082095147F147E001262
:100960000D133095FD7F147E00120D13751C0C20A5
:1009700094147F147E00120D133094FD7F147E00BA
:08098000120D13751C10AF1CD1
:01098800224C
:03000000020A1DD4
:0C0A1D00787FE4F6D8FD758131020A6490
:10098900BB010CE58229F582E5833AF583E0225023
:1009990006E92582F8E622BBFE06E92582F8E2226D
:0D09A900E58229F582E5833AF583E4932287
:1009B600EF8DF0A4A8F0CF8CF0A428CE8DF0A42E55
:0209C600FE220F
:1009C800BC000BBE0029EF8DF084FFADF022E4CC13
:1009D800F875F008EF2FFFEE33FEEC33FCEE9DECDC
:1009E800984005FCEE9DFE0FD5F0E9E4CEFD22ED22
:1009F800F8F5F0EE8420D21CFEADF075F008EF2F6C
:100A0800FFED33FD4007985006D5F0F222C398FD5C
:050A18000FD5F0EA22F9
:100A2900020AA9E493A3F8E493A34003F68001F230
:100A390008DFF48029E493A3F85407240CC8C333CE
:100A4900C4540F4420C8834004F456800146F6DF9D
:100A5900E4800B0102040810204080900D4BE47ED5
:100A6900019360BCA3FF543F30E509541FFEE49392
:100A7900A360010ECF54C025E060A840B8E493A359
:100A8900FAE493A3F8E493A3C8C582C8CAC583CA84
:100A9900F0A3C8C582C8CAC583CADFE9DEE780BE3C
:010D5700009B
:00000001FF
