:04086D007F147E0076
:10087100EF1FAC0670011E4C600A7D027CEFDCFEAE
:04088100DDFC80EC2E
:010885002250
:10084E007E01E4FDFCEFFBD3ED9B7480F86C9850B9
:0E085E000BEE25E0FE0DBD00010C80E9AF069B
:01086C002269
:10080000E4FBFA20B12312086D30B1FD12086DEB44
:10081000C3940850030B8002E4FB7401A803088012
:1008200002C333D8FCFAF4F5A020B0D712086D301B
:10083000B0FD12086DEB70047B0780011B7401A8EA
:0E08400003088002C333D8FCFAF4F5A080B59B
:030000000208866D
:0C088600787FE4F6D8FD758107020800B9
:00000001FF
