:0C0F0F00446174653A0054696D653A0055
:100A6A00120EEC120F397BFF7A0F790F7D017F018D
:100A7A00120E4E7BFF7A0F79157D017F02120E4E00
:100A8A00120989120BACE518FB7A00750C027D0677
:100A9A007F01120E8F7B2D7D087F01120F25E5192C
:100AAA00FB7A00750C027D097F01120E8F7B2D7D6A
:100ABA000B7F01120F25E51AFB7A00750C027D0CDB
:100ACA007F01120E8FE51BFB7A00750C027D067FF3
:100ADA0002120E8F7B3A7D087F02120F25E51CFB5E
:100AEA007A00750C027D097F02120E8F7B3A7D0B0C
:100AFA007F02120F25E51DFB7A00750C027D0C7F23
:0E0B0A0002120E8F7F647E00120EC2020A8D50
:100EC200EF1FAC0670011E4C600A7D027CEFDCFE57
:040ED200DDFC80ECD7
:010ED60022F9
:060F0000C2A58F80D2A7FC
:080F06007F027EEFDEFEDFFC3E
:010F0E0022C0
:0A0F1B00C2A6120F00C2A7020F06C3
:100E7100CFCDCFCECCCE120B577C007D0A120B57B3
:040E8100ED2430FF2D
:0A0E8500D2A6120F00C2A7020F064A
:100EAC00AE07BE0104ED148006BE0209ED243F44DA
:060EBC0080FF120F1B2253
:100EEC007F38120F1B7F0C120F1B7F06120F1B7FFC
:040EFC0001020F1BC5
:0A0F2500AC03120EACAF04020E85FF
:060E4E008B088A09890AE5
:100E5400120EACE4FDAB08AA09A90A8D82758300C1
:0C0E6400120B18FF6006120E850D80E9CD
:010E7000225F
:0C0E1B007F0AEA24FFFDE434FFFC7E00A7
:080E27008E0D8F0E8C0F8D1053
:100E2F007F017E00E4FBEBC39510E50F6480F8743F
:0E0E3F008098500AAC0DAD0E120B450B80E8EA
:010E4D002282
:040E8F008A0A8B0B35
:100E9300120EACAA0CEAD39400400D120E1BAC0A3E
:080EA300AD0B120E711A80ED77
:010EAB002224
:100D7000120EACC3EA64809480400B7F2B120E8568
:100D80008A168B17800E7F2D120E85C3E49BF517F4
:100D9000E49AF516AA15EAD39400400D120E1BAC86
:090DA00016AD17120E711A80ED58
:010DA9002227
:040DAA008A218B22ED
:100DAE00120EACAA23EAD3940040297F10120E1D16
:100DBE00AC21AD22CFCDCFCECCCE120B57EF540FF0
:100DCE00FEC3940AEE5004243080022437FF120E24
:040DDE00851A80D121
:010DE20022EE
:040DE3008A268B27AA
:100DE700120EACAA28EAD394004028EA24FFFDE4B7
:100DF70034FFFC7F027E00120E27AC26AD27CFCD35
:100E0700CFCECCCE120B57EF54012430FF120E85F4
:030E17001A80D26C
:010E1A0022B5
:10080000E4F5297590FFC2932097137F14FE120E12
:10081000C23097FD7F147E00120EC275290120960A
:10082000147F147E00120EC23096FD7F147E0012DB
:100830000EC27529052095147F147E00120EC23059
:1008400095FD7F147E00120EC27529092094147F35
:10085000147E00120EC23094FD7F147E00120EC270
:1008600075290D7590FFC2922097147F147E001297
:100870000EC23097FD7F147E00120EC27529022031
:1008800096147F147E00120EC23096FD7F147E00F7
:10089000120EC27529062095147F147E00120EC216
:1008A0003095FD7F147E00120EC275290A20941423
:1008B0007F147E00120EC23094FD7F147E00120E53
:1008C000C275290E7590FFC2912097147F147E0087
:1008D000120EC23097FD7F147E00120EC2752903DE
:1008E0002096147F147E00120EC23096FD7F147E77
:1008F00000120EC27529072095147F147E00120E77
:10090000C23095FD7F147E00120EC275290B209413
:10091000147F147E00120EC23094FD7F147E0012EC
:100920000EC275290F7590FFC2902097147F147E18
:1009300000120EC23097FD7F147E00120EC2752980
:10094000042096147F147E00120EC23096FD7F1490
:100950007E00120EC27529082095147F147E0012A5
:100960000EC23095FD7F147E00120EC275290C2038
:1009700094147F147E00120EC23094FD7F147E000A
:08098000120EC2752910AF2907
:01098800224C
:100ED7005389F0438901758A18758CFCC28DD28CB1
:050EE700D2A9D2AF22E8
:090F2F0007181806060C00000565
:050F3900C2B5C2B622A2
:060CC50025F0FDEC3EFCF1
:060CCB008C088D09AB0747
:100CD100D2B5E4FD74017E00A805088005C333CEBA
:100CE10033CED8F9FFEBF582EF558224FF92B4D2CF
:100CF100B6C2B60DBD08DDE4FD74017E00A805088D
:100D01008005C333CE33CED8F9FFE5085EFEE50991
:100D11005F4E24FF92B4D2B6C2B60DBD08DBC2B598
:010D210022AF
:020D2200AD071B
:100D2400E4F9430501D2B5FB74017E00A8030880F1
:100D340005C333CE33CED8F9FFEDF582EF558224C7
:100D4400FF92B4C2B6D2B60BBB08DDE4FBC2B6D286
:100D5400B630B40D7401A803088002C333D8FC4232
:0B0D6400010BBB08E8C2B5C2B4AF0130
:010D6F002261
:10098900E4FDFC7F8E120CCBE51875F00A8475F036
:1009990010A4FFAEF0E51875F00A84EF7F8C120CF5
:1009A900C5E51975F00A8475F010A4FFAEF0E519D4
:1009B90075F00A847C00EF7F88120CC5E51A75F082
:1009C9000A8475F010A4FFAEF0E51A75F00A847C6C
:1009D90000EF25F0FDEC3EFC7F86120CCBE51B7584
:1009E900F00A8475F010A4FFAEF0E51B75F00A84D7
:1009F9007C00EF25F0FDEC3EFC7F84120CCBE51C5E
:100A090075F00A8475F010A4FFAEF0E51C75F00AC4
:100A1900847C00EF25F0FDEC3EFC7F82120CCBE5D7
:100A29001D75F00A8475F010A4FFAEF0E51D75F090
:100A39000A847C00EF25F0FDEC3EFC7F80120CCB94
:100A4900E51E75F00A8475F010A4FFAEF0E51E7579
:100A5900F00A847C00EF25F0FDEC3EFC7F8A020C55
:010A6900CBC1
:100BAC007F8C120D22EFC4540F75F00AA4FEEF5483
:100BBC000F2EF5187F88120D22EFC4540F75F00A12
:100BCC00A4FEEF540F2EF5197F86120D22EFC4549C
:100BDC000F75F00AA4FEEF540F2EF51A7F84120D38
:100BEC0022EFC4540F75F00AA4FEEF540F2EF51B20
:100BFC007F82120D22EFC4540F75F00AA4FEEF543D
:100C0C000F2EF51C7F80120D22EFC4540F75F00AC5
:100C1C00A4FEEF540F2EF51D7F8A120D22EFC45443
:0C0C2C000F75F00AA4FEEF540F2EF51E09
:010C38002299
:03000000020C39B6
:0C0C3900787FE4F6D8FD758129020C805C
:100B1800BB010CE58229F582E5833AF583E0225092
:100B280006E92582F8E622BBFE06E92582F8E222DC
:0D0B3800E58229F582E5833AF583E49322F6
:100B4500EF8DF0A4A8F0CF8CF0A428CE8DF0A42EC4
:020B5500FE227E
:100B5700BC000BBE0029EF8DF084FFADF022E4CC82
:100B6700F875F008EF2FFFEE33FEEC33FCEE9DEC4B
:100B7700984005FCEE9DFE0FD5F0E9E4CEFD22ED91
:100B8700F8F5F0EE8420D21CFEADF075F008EF2FDB
:100B9700FFED33FD4007985006D5F0F222C398FDCC
:050BA7000FD5F0EA2269
:100C4500020A6AE493A3F8E493A34003F68001F251
:100C550008DFF48029E493A3F85407240CC8C333B0
:100C6500C4540F4420C8834004F456800146F6DF7F
:100C7500E4800B0102040810204080900F2FE47ED1
:100C8500019360BCA3FF543F30E509541FFEE49374
:100C9500A360010ECF54C025E060A840B8E493A33B
:100CA500FAE493A3F8E493A3C8C582C8CAC583CA66
:100CB500F0A3C8C582C8CAC583CADFE9DEE780BE1E
:010F380000B8
:00000001FF
