:100CB300120C487FE87E03120C75AF2F120CF60559
:030CC3002F80F08F
:100C7500EF1FAC0670011E4C600A7D027CEFDCFEA6
:040C8500DDFC80EC26
:010C89002248
:0C0CD5000A083F065B4F666D7D077F6FCD
:100AA900EF14B408005054900ABE75F003A4C5832E
:100AB90025F0C58373020AD6020ADA020ADE020A9F
:100AC900E2020AE6020AEE020AF6020AFED2A4804D
:100AD9000ED2A48012D2A48016D2A4801AC2A4D2A3
:100AE900A3D2A28016C2A4D2A3C2A2800EC2A4C25B
:100AF900A3D2A28006C2A4C2A3C2A274082DF8E69A
:030B0900F5802252
:060CC600C2A58F80D2A739
:080CCC007F027EEFDEFEDFFC7B
:010CD40022FD
:0A0CE200C2A6120CC6C2A7020CCC79
:100C0D00CFCDCFCECCCE1209C87C007D0A1209C83B
:040C1D00ED2430FF93
:0A0C2100D2A6120CC6C2A7020CCC2A
:100C5F00AE07BE0104ED148006BE0209ED243F4429
:060C6F0080FF120CE222DE
:100C9F007F38120CE27F0C120CE27F06120CE27FFF
:040CAF0001020CE250
:0A0CEC00AC03120C5FAF04020C21F0
:060BEA008B2C8A2D892EE0
:100BF000120C5FE4FDAB2CAA2DA92E8D827583000B
:0C0C0000120989FF6006120C210D80E92A
:010C0C0022C5
:0C0BB7007F0AEA24FFFDE434FFFC7E000E
:080BC3008E288F298C2A8D2B4E
:100BCB007F017E00E4FBEBC3952BE52A6480F87470
:0E0BDB008098500AAC28AD291209B60B80E8AC
:010BE90022E9
:040C2B008A1B8B1C79
:100C2F00120C5FAA1DEAD39400400D120BB7AC1B38
:080C3F00AD1C120C0D1A80ED32
:010C4700228A
:100B0C00120C5FC3EA64809480400B7F2B120C2183
:100B1C008A178B18800E7F2D120C21C3E49BF518BD
:100B2C00E49AF517AA16EAD39400400D120BB7AC51
:090B3C0017AD18120C0D1A80ED22
:010B4500228D
:040B46008A208B2155
:100B4A00120C5FAA22EAD3940040297F10120BB933
:100B5A00AC20AD21CFCDCFCECCCE1209C8EF540FE9
:100B6A00FEC3940AEE5004243080022437FF120C8C
:040B7A00211A80D1EB
:010B7E002254
:040B7F008A258B2612
:100B8300120C5FAA27EAD394004028EA24FFFDE46D
:100B930034FFFC7F027E00120BC3AC25AD26CFCD04
:100BA300CFCECCCE1209C8EF54012430FF120C2152
:030BB3001A80D2D3
:010BB600221C
:10080000E4F5307590FFC2932097137F14FE120C0D
:10081000753097FD7F147E00120C7575300120969F
:10082000147F147E00120C753096FD7F147E00122A
:100830000C757530052095147F147E00120C7530F0
:1008400095FD7F147E00120C757530092094147F7D
:10085000147E00120C753094FD7F147E00120C750E
:1008600075300D7590FFC2922097147F147E001290
:100870000C753097FD7F147E00120C7575300220C8
:1008800096147F147E00120C753096FD7F147E0046
:10089000120C757530062095147F147E00120C75AD
:1008A0003095FD7F147E00120C7575300A2094146B
:1008B0007F147E00120C753094FD7F147E00120CA4
:1008C0007575300E7590FFC2912097147F147E00CD
:1008D000120C753097FD7F147E00120C7575300375
:1008E0002096147F147E00120C753096FD7F147EC6
:1008F00000120C757530072095147F147E00120CC1
:10090000753095FD7F147E00120C7575300B2094A8
:10091000147F147E00120C753094FD7F147E00123B
:100920000C7575300F7590FFC2902097147F147E60
:1009300000120C753097FD7F147E00120C75753017
:10094000042096147F147E00120C753096FD7F14DF
:100950007E00120C757530082095147F147E0012ED
:100960000C753095FD7F147E00120C7575300C20CF
:1009700094147F147E00120C753094FD7F147E0059
:08098000120C75753010AF3048
:01098800224C
:100C8A005389F0438901758A18758CFCC28DD28C00
:050C9A00D2A9D2AF2237
:100C480075984043878053890F438920758BF375C6
:070C58008DF3C2ABD28E2226
:080CF6008F993099FDC299228B
:03000000020A1DD4
:0C0A1D00787FE4F6D8FD758130020A6491
:10098900BB010CE58229F582E5833AF583E0225023
:1009990006E92582F8E622BBFE06E92582F8E2226D
:0D09A900E58229F582E5833AF583E4932287
:1009B600EF8DF0A4A8F0CF8CF0A428CE8DF0A42E55
:0209C600FE220F
:1009C800BC000BBE0029EF8DF084FFADF022E4CC13
:1009D800F875F008EF2FFFEE33FEEC33FCEE9DECDC
:1009E800984005FCEE9DFE0FD5F0E9E4CEFD22ED22
:1009F800F8F5F0EE8420D21CFEADF075F008EF2F6C
:100A0800FFED33FD4007985006D5F0F222C398FD5C
:050A18000FD5F0EA22F9
:100A2900020CB3E493A3F8E493A34003F68001F224
:100A390008DFF48029E493A3F85407240CC8C333CE
:100A4900C4540F4420C8834004F456800146F6DF9D
:100A5900E4800B0102040810204080900CD5E47E4C
:100A6900019360BCA3FF543F30E509541FFEE49392
:100A7900A360010ECF54C025E060A840B8E493A359
:100A8900FAE493A3F8E493A3C8C582C8CAC583CA84
:100A9900F0A3C8C582C8CAC583CADFE9DEE780BE3C
:010CE1000012
:00000001FF
