:100C610075A0FE120CE51208008F2AE52AB401F6E0
:0E0C7100052BE52BC3940240EDE4F52B80E843
:03000B00020B0CD9
:0B0B0C00C0E0C0D075D000C000C007E2
:100B1700758A18758CFC0529E52970020528C39488
:100B2700F4E52894014029752800752900E52B7004
:100B37000DAFA07801EF08800103D8FDF5A0E52BE4
:100B4700B4010DAFA07801EF08800103D8FDF5A02F
:090B5700D007D000D0D0D0E0326C
:100CD000EF1FAC0670011E4C600A7D027CEFDCFE4B
:040CE000DDFC80ECCB
:010CE40022ED
:0C0D1D000A083F065B4F666D7D077F6F84
:100AA900EF14B408005054900ABE75F003A4C5832E
:100AB90025F0C58373020AD6020ADA020ADE020A9F
:100AC900E2020AE6020AEE020AF6020AFED2A4804D
:100AD9000ED2A48012D2A48016D2A4801AC2A4D2A3
:100AE900A3D2A28016C2A4D2A3C2A2800EC2A4C25B
:100AF900A3D2A28006C2A4C2A3C2A274082DF8E69A
:030B0900F5802252
:060D0E00C2A58F80D2A7F0
:080D14007F027EEFDEFEDFFC32
:010D1C0022B4
:0A0D2A00C2A6120D0EC2A7020D149E
:100C7F00CFCDCFCECCCE1209C87C007D0A1209C8C9
:040C8F00ED2430FF21
:0A0C9300D2A6120D0EC2A7020D1426
:100CBA00AE07BE0104ED148006BE0209ED243F44CE
:060CCA0080FF120D2A223A
:100CFA007F38120D2A7F0C120D2A7F06120D2A7FC9
:040D0A0001020D2AAB
:0A0D3400AC03120CBAAF04020C93DA
:060C3E008B308A3189327F
:100C4400120CBAE4FDAB30AA31A9328D827583004F
:0C0C5400120989FF6006120C930D80E964
:010C60002271
:0C0C0B007F0AEA24FFFDE434FFFC7E00B9
:080C17008E2C8F2D8C2E8D2FE9
:100C1F007F017E00E4FBEBC3952FE52E6480F87413
:0E0C2F008098500AAC2CAD2D1209B60B80E84F
:010C3D002294
:040C9D008A1B8B1C07
:100CA100120CBAAA1DEAD39400400D120C0BAC1B16
:080CB100AD1C120C7F1A80ED4E
:010CB9002218
:100B6000120CBAC3EA64809480400B7F2B120C9362
:100B70008A178B18800E7F2D120C93C3E49BF518F7
:100B8000E49AF517AA16EAD39400400D120C0BACA8
:090B900017AD18120C7F1A80ED5C
:010B99002239
:040B9A008A208B2101
:100B9E00120CBAAA22EAD3940040297F10120C0D2F
:100BAE00AC20AD21CFCDCFCECCCE1209C8EF540F95
:100BBE00FEC3940AEE5004243080022437FF120C38
:040BCE00931A80D125
:010BD2002200
:040BD3008A258B26BE
:100BD700120CBAAA27EAD394004028EA24FFFDE4BE
:100BE70034FFFC7F027E00120C17AC25AD26CFCD5B
:100BF700CFCECCCE1209C8EF54012430FF120C938C
:030C07001A80D27E
:010C0A0022C7
:10080000E4F5337590FFC2932097137F14FE120C0A
:10081000D03097FD7F147E00120CD07533012096E6
:10082000147F147E00120CD03096FD7F147E0012CF
:100830000CD07533052095147F147E00120CD03037
:1008400095FD7F147E00120CD07533092094147F1F
:10085000147E00120CD03094FD7F147E00120CD058
:1008600075330D7590FFC2922097147F147E00128D
:100870000CD03097FD7F147E00120CD0753302200F
:1008800096147F147E00120CD03096FD7F147E00EB
:10089000120CD07533062095147F147E00120CD0F4
:1008A0003095FD7F147E00120CD075330A2094140D
:1008B0007F147E00120CD03094FD7F147E00120C49
:1008C000D075330E7590FFC2912097147F147E006F
:1008D000120CD03097FD7F147E00120CD0753303BC
:1008E0002096147F147E00120CD03096FD7F147E6B
:1008F00000120CD07533072095147F147E00120C63
:10090000D03095FD7F147E00120CD075330B2094EF
:10091000147F147E00120CD03094FD7F147E0012E0
:100920000CD075330F7590FFC2902097147F147E02
:1009300000120CD03097FD7F147E00120CD075335E
:10094000042096147F147E00120CD03096FD7F1484
:100950007E00120CD07533082095147F147E00128F
:100960000CD03095FD7F147E00120CD075330C2016
:1009700094147F147E00120CD03094FD7F147E00FE
:08098000120CD0753310AF33E7
:01098800224C
:100CE5005389F0438901758A18758CFCC28DD28CA5
:050CF500D2A9D2AF22DC
:03000000020A1DD4
:0C0A1D00787FE4F6D8FD758133020A648E
:10098900BB010CE58229F582E5833AF583E0225023
:1009990006E92582F8E622BBFE06E92582F8E2226D
:0D09A900E58229F582E5833AF583E4932287
:1009B600EF8DF0A4A8F0CF8CF0A428CE8DF0A42E55
:0209C600FE220F
:1009C800BC000BBE0029EF8DF084FFADF022E4CC13
:1009D800F875F008EF2FFFEE33FEEC33FCEE9DECDC
:1009E800984005FCEE9DFE0FD5F0E9E4CEFD22ED22
:1009F800F8F5F0EE8420D21CFEADF075F008EF2F6C
:100A0800FFED33FD4007985006D5F0F222C398FD5C
:050A18000FD5F0EA22F9
:100A2900020C61E493A3F8E493A34003F68001F276
:100A390008DFF48029E493A3F85407240CC8C333CE
:100A4900C4540F4420C8834004F456800146F6DF9D
:100A5900E4800B0102040810204080900D1DE47E03
:100A6900019360BCA3FF543F30E509541FFEE49392
:100A7900A360010ECF54C025E060A840B8E493A359
:100A8900FAE493A3F8E493A3C8C582C8CAC583CA84
:100A9900F0A3C8C582C8CAC583CADFE9DEE780BE3C
:010D290000C9
:00000001FF
