:100A150020482BF88CF8F3F95BF9B8FA15FA67FA60
:100A2500B9FB04FB4BFB90FBCFFC0CFC44FC79FCB5
:100A3500ACFCDCFD09FD34FD5CFD82FDA6FDC8FDB9
:100A4500E8FE06FE22FE3DFE56FE6EFE85FE9AFE81
:100A5500AEFEC1FED3FEE4FEF4FF032021080C0424
:100A65000C041304130400041504150413081104DD
:0F0A750011040004100410040E040E040C08FFFA
:100B5500120BEF74082529F8E6FFF460238F2A05A8
:100B65002974082529F8E675F07DA4FFAEF0120B6F
:100B7500DA0529C28C7F057E00120BDAD28C80D370
:040B8500C28C80FEA0
:03000B00020B895C
:100B8900C0E0C0D075D000C000C006E52A25E02429
:100B99002BF8E6FE08E64E6012E52A25E0242BF83C
:100BA900E6FE08E6F58AEEF58CB2A5D006D000D0AF
:040BB900D0D0E03286
:100BDA00EF1FAC0670011E4C600A7D027CEFDCFE42
:040BEA00DDFC80ECC2
:010BEE0022E4
:10080000E4F57D7590FFC2932097137F14FE120BC1
:10081000DA3097FD7F147E00120BDA757D01209689
:10082000147F147E00120BDA3096FD7F147E0012C6
:100830000BDA757D052095147F147E00120BDA30DB
:1008400095FD7F147E00120BDA757D092094147FCC
:10085000147E00120BDA3094FD7F147E00120BDA46
:10086000757D0D7590FFC2922097147F147E001243
:100870000BDA3097FD7F147E00120BDA757D0220B3
:1008800096147F147E00120BDA3096FD7F147E00E2
:10089000120BDA757D062095147F147E00120BDA98
:1008A0003095FD7F147E00120BDA757D0A209414BA
:1008B0007F147E00120BDA3094FD7F147E00120B41
:1008C000DA757D0E7590FFC2912097147F147E001B
:1008D000120BDA3097FD7F147E00120BDA757D0360
:1008E0002096147F147E00120BDA3096FD7F147E62
:1008F00000120BDA757D072095147F147E00120B11
:10090000DA3095FD7F147E00120BDA757D0B209492
:10091000147F147E00120BDA3094FD7F147E0012D7
:100920000BDA757D0F7590FFC2902097147F147EAF
:1009300000120BDA3097FD7F147E00120BDA757D02
:10094000042096147F147E00120BDA3096FD7F147B
:100950007E00120BDA757D082095147F147E00123C
:100960000BDA3095FD7F147E00120BDA757D0C20BA
:1009700094147F147E00120BDA3094FD7F147E00F5
:08098000120BDA757D10AF7D4A
:01098800224C
:100BEF005389F0438901758A18758CFCC28DD28C9C
:050BFF00D2A9D2AF22D3
:0C0A84000A733F065B4F666D7D077F6FB5
:100A9100EF14B408005054900AA675F003A4C5835E
:100AA10025F0C58373020ABE020AC2020AC6020AFF
:100AB100CA020ACE020AD6020ADE020AE6D2A480DD
:100AC1000ED2A48012D2A48016D2A4801AC2A4D2BB
:100AD100A3D2A28016C2A4D2A3C2A2800EC2A4C273
:100AE100A3D2A28006C2A4C2A3C2A274732DF8E647
:030AF100F580226B
:100AF400E4F57E20B1137F14FE120BDA30B1FD7FD2
:100B0400147E00120BDA757E0120B0147F147E006F
:100B1400120BDA30B0FD7F147E00120BDA757E0200
:100B240020B2147F147E00120BDA30B2FD7F147EE3
:100B340000120BDA757E0320B3147F147E00120BAF
:100B4400DA30B3FD7F147E00120BDA757E04AF7EBB
:010B5400227E
:050C0400007FF7DFFE98
:010C090022C8
:040BBD00AD07AC06CE
:100BC100E4FBED25E0FFEC33FEEBC39FE49E500810
:080BD100B2A5120C040B80EA2E
:010BD90022F9
:0300000002098969
:0C098900787FE4F6D8FD75817E0209D06D
:10099500020B55E493A3F8E493A34003F68001F218
:1009A50008DFF48029E493A3F85407240CC8C33363
:1009B500C4540F4420C8834004F456800146F6DF32
:1009C500E4800B0102040810204080900A15E47EA3
:1009D500019360BCA3FF543F30E509541FFEE49327
:1009E500A360010ECF54C025E060A840B8E493A3EE
:1009F500FAE493A3F8E493A3C8C582C8CAC583CA19
:100A0500F0A3C8C582C8CAC583CADFE9DEE780BED0
:010A90000065
:00000001FF
