:100E8700E4FD7F01120C17120C7A8F38E53860F7F2
:100E97007FF47E01120EE2AD387F01120C1780E756
:100F2B00EF1FAC0670011E4C600A7D027CEFDCFEED
:040F3B00DDFC80EC6D
:010F3F00228F
:060F6900C2A58F80D2A793
:080F6F007F027EEFDEFEDFFCD5
:010F77002257
:0A0F7800C2A6120F69C2A7020F6F94
:100EA700CFCDCFCECCCE120AA97C007D0A120AA9DB
:040EB700ED2430FFF7
:0A0EBB00D2A6120F69C2A7020F6F42
:100EFF00AE07BE0104ED148006BE0209ED243F4487
:060F0F0080FF120F7822A2
:100F55007F38120F787F0C120F787F06120F787F7B
:040F650001020F78FE
:0A0F8200AC03120EFFAF04020EBB19
:060E64008B338A3489354E
:100E6A00120EFFE4FDAB33AA34A9358D82758300D7
:0C0E7A00120A6AFF6006120EBB0D80E930
:010E86002249
:0C0E31007F0AEA24FFFDE434FFFC7E0091
:080E3D008E2F8F308C318D32B5
:100E45007F017E00E4FBEBC39532E5316480F874E5
:0E0E55008098500AAC2FAD30120A970B80E83F
:010E6300226C
:040EC5008A228B23CF
:100EC900120EFFAA24EAD39400400D120E31AC226F
:080ED900AD23120EA71A80EDF3
:010EE10022EE
:100D8600120EFFC3EA64809480400B7F2B120EBBC9
:100D96008A178B18800E7F2D120EBBC3E49BF518A5
:100DA600E49AF517AA16EAD39400400D120E31AC58
:090DB60017AD18120EA71A80ED0A
:010DBF002211
:040DC0008A278B28CB
:100DC400120EFFAA29EAD3940040297F10120E3391
:100DD400AC27AD28CFCDCFCECCCE120AA9EF540F7D
:100DE400FEC3940AEE5004243080022437FF120E0E
:040DF400BB1A80D1D5
:010DF80022D8
:040DF9008A2C8B2D88
:100DFD00120EFFAA2EEAD394004028EA24FFFDE448
:100E0D0034FFFC7F027E00120E3DAC2CAD2DCFCDFC
:100E1D00CFCECCCE120AA9EF54012430FF120EBB57
:030E2D001A80D256
:010E3000229F
:10080000E4F5397590FFC2932097137F14FE120F01
:100810002B3097FD7F147E00120F2B753901209627
:10082000147F147E00120F2B3096FD7F147E001271
:100830000F2B7539052095147F147E00120F2B3075
:1008400095FD7F147E00120F2B7539092094147FBB
:10085000147E00120F2B3094FD7F147E00120F2B9C
:1008600075390D7590FFC2922097147F147E001287
:100870000F2B3097FD7F147E00120F2B753902204D
:1008800096147F147E00120F2B3096FD7F147E008D
:10089000120F2B7539062095147F147E00120F2B32
:1008A0003095FD7F147E00120F2B75390A209414A9
:1008B0007F147E00120F2B3094FD7F147E00120FE8
:1008C0002B75390E7590FFC2912097147F147E000E
:1008D000120F2B3097FD7F147E00120F2B753903FA
:1008E0002096147F147E00120F2B3096FD7F147E0D
:1008F00000120F2B7539072095147F147E00120FFC
:100900002B3095FD7F147E00120F2B75390B209430
:10091000147F147E00120F2B3094FD7F147E001282
:100920000F2B75390F7590FFC2902097147F147E9E
:1009300000120F2B3097FD7F147E00120F2B75399C
:10094000042096147F147E00120F2B3096FD7F1426
:100950007E00120F2B7539082095147F147E00122B
:100960000F2B3095FD7F147E00120F2B75390C2054
:1009700094147F147E00120F2B3094FD7F147E00A0
:08098000120F2B753910AF397D
:01098800224C
:100F40005389F0438901758A18758CFCC28DD28C47
:050F5000D2A9D2AF227E
:090F150007191806060C0000057E
:050F9200C2B5C2B62249
:060CDB0025F0FDEC3EFCDB
:060CE1008C368D37AB07D5
:100CE700D2B5E4FD74017E00A805088005C333CEA4
:100CF70033CED8F9FFEBF582EF558224FF92B4D2B9
:100D0700B6C2B60DBD08DDE4FD74017E00A8050876
:100D17008005C333CE33CED8F9FFE5365EFEE5371F
:100D27005F4E24FF92B4D2B6C2B60DBD08DBC2B582
:010D37002299
:020D3800AD0705
:100D3A00E4F9430501D2B5FB74017E00A8030880DB
:100D4A0005C333CE33CED8F9FFEDF582EF558224B1
:100D5A00FF92B4C2B6D2B60BBB08DDE4FBC2B6D270
:100D6A00B630B40D7401A803088002C333D8FC421C
:0B0D7A00010BBB08E8C2B5C2B4AF011A
:010D8500224B
:10098900E4FDFC7F8E120CE1E51975F00A8475F01F
:1009990010A4FFAEF0E51975F00A84EF7F8C120CF4
:1009A900DBE51A75F00A8475F010A4FFAEF0E51ABC
:1009B90075F00A847C00EF7F88120CDBE51B75F06B
:1009C9000A8475F010A4FFAEF0E51B75F00A847C6B
:1009D90000EF25F0FDEC3EFC7F86120CE1E51C756D
:1009E900F00A8475F010A4FFAEF0E51C75F00A84D6
:1009F9007C00EF25F0FDEC3EFC7F84120CE1E51D47
:100A090075F00A8475F010A4FFAEF0E51D75F00AC3
:100A1900847C00EF25F0FDEC3EFC7F82120CE1E5C1
:100A29001E75F00A8475F010A4FFAEF0E51E75F08E
:100A39000A847C00EF25F0FDEC3EFC7F80120CE17E
:100A4900E51F75F00A8475F010A4FFAEF0E51F7577
:100A5900F00A847C00EF25F0FDEC3EFC7F8A020C55
:010A6900E1AB
:100AFE007F8C120D38EFC4540F75F00AA4FEEF541C
:100B0E000F2EF5197F88120D38EFC4540F75F00AA9
:100B1E00A4FEEF540F2EF51A7F86120D38EFC45433
:100B2E000F75F00AA4FEEF540F2EF51B7F84120DE5
:100B3E0038EFC4540F75F00AA4FEEF540F2EF51CB7
:100B4E007F82120D38EFC4540F75F00AA4FEEF54D5
:100B5E000F2EF51D7F80120D38EFC4540F75F00A5D
:100B6E00A4FEEF540F2EF51E7F8A120D38EFC454DB
:0C0B7E000F75F00AA4FEEF540F2EF51FB7
:010B8A002248
:0C0F1E000A083F065B4F666D7D077F6F81
:100C1700EF14B408005054900C2C75F003A4C5834E
:100C270025F0C58373020C44020C48020C4C020CDD
:100C370050020C54020C5C020C64020C6CD2A480AF
:100C47000ED2A48012D2A48016D2A4801AC2A4D233
:100C5700A3D2A28016C2A4D2A3C2A2800EC2A4C2EB
:100C6700A3D2A28006C2A4C2A3C2A274082DF8E62A
:030C7700F58022E3
:100C7A00E4F53A20B1137F14FE120F2B30B1FD7F39
:100C8A00147E00120F2B753A0120B0147F147E00D7
:100C9A00120F2B30B0FD7F147E00120F2B753A0213
:100CAA0020B2147F147E00120F2B30B2FD7F147E07
:100CBA0000120F2B753A0320B3147F147E00120F13
:100CCA002B30B3FD7F147E00120F2B753A04AF3A16
:010CDA0022F7
:050F8C00007FF7DFFE0D
:010F9100223D
:040EE200AD07AC06A6
:100EE600E4FBED25E0FFEC33FEEBC39FE49E5008E8
:080EF600B2A5120F8C0B80EA7B
:010EFE0022D1
:03000000020B8B65
:0C0B8B00787FE4F6D8FD75813A020BD2A9
:100A6A00BB010CE58229F582E5833AF583E0225041
:100A7A0006E92582F8E622BBFE06E92582F8E2228B
:0D0A8A00E58229F582E5833AF583E49322A5
:100A9700EF8DF0A4A8F0CF8CF0A428CE8DF0A42E73
:020AA700FE222D
:100AA900BC000BBE0029EF8DF084FFADF022E4CC31
:100AB900F875F008EF2FFFEE33FEEC33FCEE9DECFA
:100AC900984005FCEE9DFE0FD5F0E9E4CEFD22ED40
:100AD900F8F5F0EE8420D21CFEADF075F008EF2F8A
:100AE900FFED33FD4007985006D5F0F222C398FD7B
:050AF9000FD5F0EA2218
:100B9700020E87E493A3F8E493A34003F68001F2DF
:100BA70008DFF48029E493A3F85407240CC8C3335F
:100BB700C4540F4420C8834004F456800146F6DF2E
:100BC700E4800B0102040810204080900F15E47E9A
:100BD700019360BCA3FF543F30E509541FFEE49323
:100BE700A360010ECF54C025E060A840B8E493A3EA
:100BF700FAE493A3F8E493A3C8C582C8CAC583CA15
:100C0700F0A3C8C582C8CAC583CADFE9DEE780BECC
:010F2A0000C6
:00000001FF
