:090D600001250001270001260015
:010E3C002293
:10080000120DBB120E368F2AE52A606EB4010CE57C
:100810002870047F0180027F008F28E52AB4020738
:10082000E4F527F525F526E52A64037033E525FD73
:100830007C00E4FF120CEA7F057E00120DA6E5277E
:10084000FD7C007F01120CEA7F057E00120DA6E5FB
:1008500026FD7C007F02120CEA7F057E00120DA6A9
:10086000E52AB40415E4FF120C438F257F01120C16
:10087000438F277F02120C438F26E52575F00A84EB
:10088000FD7C007F07120E26E52575F00A84E5F051
:10089000FD7C007F08120E26E52775F00A84FD7C9A
:1008A000007F04120E26E52775F00A84E5F0FD7C32
:1008B000007F05120E26E52675F00A84FD7C007F78
:1008C00001120E26E52675F00A84E5F0FD7C007F16
:0708D00002120E26020803CC
:100C9E00E52860240525E525D3943C401BE4F52585
:100CAE000527E527D3943C400FE4F5270526E526D6
:090CBE00D3943C4003E4F5262226
:03000B000208D711
:1008D700C0E0C0F0C083C082C0D075D000C000C0E7
:0D08E70001C002C003C004C005C006C00768
:1008F400758A18758CFC7D0B7C007F03120E267D97
:100904000B7C007F06120E26051FE51F7002051ED4
:10091400C3943CE51E94004009751E00751F001227
:100924000C9E0521E52170020520C39414E5209452
:10093400004009752000752100120AF80523E523FB
:1009440070020522C39402E5229400400975220036
:06095400752300120D479F
:10095A00D007D006D005D004D003D002D001D000F1
:0B096A00D0D0D082D083D0F0D0E0329B
:100DA600EF1FAC0670011E4C600A7D027CEFDCFE74
:040DB600DDFC80ECF4
:010DBA002216
:050E3600AF47E4F547A1
:010E3B002294
:100C1100E4FF20B1087F14FE120DA67F0120B00968
:100C21007F147E00120DA67F0220B2097F147E0080
:100C3100120DA67F0320B3097F147E00120DA67F3B
:010C410004AE
:010C4200228F
:100AF800854546120C118F45E546B40107E545705A
:100B080003754701E546B40207E5457003754702DA
:100B1800E546B40307E5457003754703E546B404A5
:0A0B280007E5457003754704AF4769
:010B320022A0
:060DE400C2A58F80D2A71A
:080DEA007F027EEFDEFEDFFC5C
:010DF20022DE
:0A0DFF00C2A6120DE4C2A7020DEA1D
:100D0C00CFCDCFCECCCE1209B47C007D0A1209B463
:040D1C00ED2430FF93
:0A0D2000D2A6120DE4C2A7020DEAEC
:100D9000AE07BE0104ED148006BE0209ED243F44F7
:060DA00080FF120DFF228E
:100DD0007F38120DFF7F0C120DFF7F06120DFF7F73
:040DE00001020DFF00
:0A0E0900AC03120D90AF04020D209F
:060CC7008B488A49894AAE
:100CCD00120D90E4FDAB48AA49A94A8D82758300A7
:0C0CDD00120975FF6006120D200D80E961
:010CE90022E8
:0C0BDE007F0AEA24FFFDE434FFFC7E00E7
:080BEA008E418F428C438D44C3
:100BF2007F017E00E4FBEBC39544E5436480F87417
:0E0C02008098500AAC41AD421209A20B80E866
:010C100022C1
:040D2A008A348B3547
:100D2E00120D90AA36EAD39400400D120BDEAC34AD
:080D3E00AD35120D0C1A80ED19
:010D4600228A
:100B3300120D90C3EA64809480400B7F2B120D202A
:100B43008A308B31800E7F2D120D20C3E49BF5314B
:100B5300E49AF530AA2FEAD39400400D120BDEACD1
:090B630030AD31120D0C1A80EDC9
:010B6C002266
:040B6D008A398B3AFC
:100B7100120D90AA3BEAD3940040297F10120BE09A
:100B8100AC39AD3ACFCDCFCECCCE1209B4EF540FA4
:100B9100FEC3940AEE5004243080022437FF120D64
:040BA100201A80D1C5
:010BA500222D
:040BA6008A3E8B3FB9
:100BAA00120D90AA40EAD394004028EA24FFFDE4FB
:100BBA0034FFFC7F027E00120BEAAC3EAD3FCFCD84
:100BCA00CFCECCCE1209B4EF54012430FF120D203F
:030BDA001A80D2AC
:010BDD0022F5
:090E1D00D2A0D2A1C2A0C2A12200
:070E2F00C2A0D2A1D2A02253
:020C7300AD07CB
:100C7500E4FC74807E00A804088006CEA2E713CEAB
:100C850013D8F8FFEDFBEF5B6003D38001C392A09F
:080C9500D2A1C2A10CBC08DAD7
:010C9D002234
:100D7800E4FFD2A0FEEF25E0FFD2A130A003430795
:070D880001C2A10EBE08EE3E
:010D8F002241
:0A0E1300EF24FF92A0D2A1C2A12299
:0B0DF300D2A0D2A1A2A0E433FFC2A155
:010DFE0022D2
:100CEA008F4B8D4C120E1D7FA0120C73120DF3AF99
:100CFA004B120C73120DF3AF4C120C73120DF3025C
:020D0A000E2FAA
:020C43008F4BD5
:100C4500120E1D7FA0120C73120DF3AF4B120C7315
:100C5500120DF3120E1D7FA1120C73120DF3120D5E
:0D0C6500788F4C7F01120E13120E2FAF4C32
:010C7200225F
:100DBB005389F0438901758A18758CFCC28DD28CCE
:050DCB00D2A9D2AF2205
:0E0D69000C123F065B4F666D7D077F6F0040EA
:090E2600AE0574092FF8A606229E
:100A9500EF14B408005054900AAA75F003A4C58356
:100AA50025F0C58373020AC2020AC6020ACA020AEF
:100AB500CE020AD2020ADA020AE2020AEAD2A480C5
:100AC5000ED2A48012D2A48016D2A4801AC2A4D2B7
:100AD500A3D2A28016C2A4D2A3C2A2800EC2A4C26F
:100AE500A3D2A28006C2A4C2A3C2A274122DF8E6A4
:030AF500F5802267
:100D470074092508F8E6FDAF08120A950508E508B5
:080D5700C39409400375080173
:010D5F002271
:03000000020A09E8
:0C0A0900787FE4F6D8FD75814C020A509D
:10097500BB010CE58229F582E5833AF583E0225037
:1009850006E92582F8E622BBFE06E92582F8E22281
:0D099500E58229F582E5833AF583E493229B
:1009A200EF8DF0A4A8F0CF8CF0A428CE8DF0A42E69
:0209B200FE2223
:1009B400BC000BBE0029EF8DF084FFADF022E4CC27
:1009C400F875F008EF2FFFEE33FEEC33FCEE9DECF0
:1009D400984005FCEE9DFE0FD5F0E9E4CEFD22ED36
:1009E400F8F5F0EE8420D21CFEADF075F008EF2F80
:1009F400FFED33FD4007985006D5F0F222C398FD71
:050A04000FD5F0EA220D
:100A1500020800E493A3F8E493A34003F68001F2EF
:100A250008DFF48029E493A3F85407240CC8C333E2
:100A3500C4540F4420C8834004F456800146F6DFB1
:100A4500E4800B0102040810204080900D60E47ED4
:100A5500019360BCA3FF543F30E509541FFEE493A6
:100A6500A360010ECF54C025E060A840B8E493A36D
:100A7500FAE493A3F8E493A3C8C582C8CAC583CA98
:100A8500F0A3C8C582C8CAC583CADFE9DEE780BE50
:010D7700007B
:00000001FF
