:0A0CD300120C487F42120CFA80FE5A
:03002300020CF1DB
:090CF1003098058599A0C29832E3
:100C7900EF1FAC0670011E4C600A7D027CEFDCFEA2
:040C8900DDFC80EC22
:010C8D002244
:0C0CC6000A083F065B4F666D7D077F6FDC
:100AA900EF14B408005054900ABE75F003A4C5832E
:100AB90025F0C58373020AD6020ADA020ADE020A9F
:100AC900E2020AE6020AEE020AF6020AFED2A4804D
:100AD9000ED2A48012D2A48016D2A4801AC2A4D2A3
:100AE900A3D2A28016C2A4D2A3C2A2800EC2A4C25B
:100AF900A3D2A28006C2A4C2A3C2A274082DF8E69A
:030B0900F5802252
:060CB700C2A58F80D2A748
:080CBD007F027EEFDEFEDFFC8A
:010CC500220C
:0A0CDD00C2A6120CB7C2A7020CBD9C
:100C0D00CFCDCFCECCCE1209C87C007D0A1209C83B
:040C1D00ED2430FF93
:0A0C2100D2A6120CB7C2A7020CBD48
:100C6300AE07BE0104ED148006BE0209ED243F4425
:060C730080FF120CDD22DF
:100CA3007F38120CDD7F0C120CDD7F06120CDD7F0A
:040CB30001020CDD51
:0A0CE700AC03120C63AF04020C21F1
:060BEA008B2C8A2D892EE0
:100BF000120C63E4FDAB2CAA2DA92E8D8275830007
:0C0C0000120989FF6006120C210D80E92A
:010C0C0022C5
:0C0BB7007F0AEA24FFFDE434FFFC7E000E
:080BC3008E288F298C2A8D2B4E
:100BCB007F017E00E4FBEBC3952BE52A6480F87470
:0E0BDB008098500AAC28AD291209B60B80E8AC
:010BE90022E9
:040C2B008A1B8B1C79
:100C2F00120C63AA1DEAD39400400D120BB7AC1B34
:080C3F00AD1C120C0D1A80ED32
:010C4700228A
:100B0C00120C63C3EA64809480400B7F2B120C217F
:100B1C008A178B18800E7F2D120C21C3E49BF518BD
:100B2C00E49AF517AA16EAD39400400D120BB7AC51
:090B3C0017AD18120C0D1A80ED22
:010B4500228D
:040B46008A208B2155
:100B4A00120C63AA22EAD3940040297F10120BB92F
:100B5A00AC20AD21CFCDCFCECCCE1209C8EF540FE9
:100B6A00FEC3940AEE5004243080022437FF120C8C
:040B7A00211A80D1EB
:010B7E002254
:040B7F008A258B2612
:100B8300120C63AA27EAD394004028EA24FFFDE469
:100B930034FFFC7F027E00120BC3AC25AD26CFCD04
:100BA300CFCECCCE1209C8EF54012430FF120C2152
:030BB3001A80D2D3
:010BB600221C
:10080000E4F5307590FFC2932097137F14FE120C0D
:10081000793097FD7F147E00120C79753001209697
:10082000147F147E00120C793096FD7F147E001226
:100830000C797530052095147F147E00120C7930E8
:1008400095FD7F147E00120C797530092094147F79
:10085000147E00120C793094FD7F147E00120C7906
:1008600075300D7590FFC2922097147F147E001290
:100870000C793097FD7F147E00120C7975300220C0
:1008800096147F147E00120C793096FD7F147E0042
:10089000120C797530062095147F147E00120C79A5
:1008A0003095FD7F147E00120C7975300A20941467
:1008B0007F147E00120C793094FD7F147E00120CA0
:1008C0007975300E7590FFC2912097147F147E00C9
:1008D000120C793097FD7F147E00120C797530036D
:1008E0002096147F147E00120C793096FD7F147EC2
:1008F00000120C797530072095147F147E00120CBD
:10090000793095FD7F147E00120C7975300B2094A0
:10091000147F147E00120C793094FD7F147E001237
:100920000C7975300F7590FFC2902097147F147E5C
:1009300000120C793097FD7F147E00120C7975300F
:10094000042096147F147E00120C793096FD7F14DB
:100950007E00120C797530082095147F147E0012E9
:100960000C793095FD7F147E00120C7975300C20C7
:1009700094147F147E00120C793094FD7F147E0055
:08098000120C79753010AF3044
:01098800224C
:100C8E005389F0438901758A18758CFCC28DD28CFC
:050C9E00D2A9D2AF2233
:100C480075985043878053890F438920758BF375B6
:0B0C58008DF3C2ABD28ED2AFD2AC2223
:080CFA008F993099FDC2992287
:03000000020A1DD4
:0C0A1D00787FE4F6D8FD758130020A6491
:10098900BB010CE58229F582E5833AF583E0225023
:1009990006E92582F8E622BBFE06E92582F8E2226D
:0D09A900E58229F582E5833AF583E4932287
:1009B600EF8DF0A4A8F0CF8CF0A428CE8DF0A42E55
:0209C600FE220F
:1009C800BC000BBE0029EF8DF084FFADF022E4CC13
:1009D800F875F008EF2FFFEE33FEEC33FCEE9DECDC
:1009E800984005FCEE9DFE0FD5F0E9E4CEFD22ED22
:1009F800F8F5F0EE8420D21CFEADF075F008EF2F6C
:100A0800FFED33FD4007985006D5F0F222C398FD5C
:050A18000FD5F0EA22F9
:100A2900020CD3E493A3F8E493A34003F68001F204
:100A390008DFF48029E493A3F85407240CC8C333CE
:100A4900C4540F4420C8834004F456800146F6DF9D
:100A5900E4800B0102040810204080900CC6E47E5B
:100A6900019360BCA3FF543F30E509541FFEE49392
:100A7900A360010ECF54C025E060A840B8E493A359
:100A8900FAE493A3F8E493A3C8C582C8CAC583CA84
:100A9900F0A3C8C582C8CAC583CADFE9DEE780BE3C
:010CD2000021
:00000001FF
