:100C0400120E86E4F52E852E2B7F0A7E00120E71BD
:100C1400052EE52EC3946440ED752E64E52ED39421
:100C24000040E0852E2B7F0A7E00120E71152E8067
:010C3400EBD4
:03000B00020C9153
:100C9100C0E0C0F0C0D0758A9C758CFF052DE52D94
:100CA10075F0648485F02DE52DC3952B5004D2A1F8
:0B0CB1008002C2A1D0D0D0F0D0E03211
:100E7100EF1FAC0670011E4C600A7D027CEFDCFEA8
:040E8100DDFC80EC28
:010E8500224A
:050F2C00AF45E4F545AE
:010F3100229D
:100BD200E4FF20B1087F14FE120E717F0120B009DC
:100BE2007F147E00120E717F0220B2097F147E00F4
:100BF200120E717F0320B3097F147E00120E717FE3
:010C020004ED
:010C030022CE
:100AB900854344120BD28F43E544B40107E54370E3
:100AC90003754501E544B40207E543700375450222
:100AD900E544B40307E5437003754503E544B404ED
:0A0AE90007E5437003754504AF45AF
:010AF30022E0
:060EAF00C2A58F80D2A74E
:080EB5007F027EEFDEFEDFFC90
:010EBD002212
:0A0ED700C2A6120EAFC2A7020EB5AC
:100D4F00CFCDCFCECCCE1209677C007D0A120967BA
:040D5F00ED2430FF50
:0A0D6300D2A6120EAFC2A7020EB511
:100E4500AE07BE0104ED148006BE0209ED243F4441
:060E550080FF120ED722FF
:100E9B007F38120ED77F0C120ED77F06120ED77F1C
:040EAB0001020ED75B
:0A0EE100AC03120E45AF04020D63CE
:060CE7008B468A47894894
:100CED00120E45E4FDAB46AA47A9488D82758300D7
:0C0CFD00120928FF6006120D630D80E94B
:010D090022C7
:0C0B9F007F0AEA24FFFDE434FFFC7E0026
:080BAB008E3F8F408C418D420A
:100BB3007F017E00E4FBEBC39542E5416480F8745A
:0E0BC3008098500AAC3FAD401209550B80E8F7
:010BD1002201
:040D6D008A328B3308
:100D7100120E45AA34EAD39400400D120B9FAC32F7
:080D8100AD33120D4F1A80ED95
:010D89002247
:100AF400120E45C3EA64809480400B7F2B120D6371
:100B04008A238B24800E7F2D120D63C3E49BF5246E
:100B1400E49AF523AA22EAD39400400D120B9FAC69
:090B240023AD24120D4F1A80EDDF
:010B2D0022A5
:040B2E008A378B383F
:100B3200120E45AA39EAD3940040297F10120BA164
:100B4200AC37AD38CFCDCFCECCCE120967EF540F34
:100B5200FEC3940AEE5004243080022437FF120DA3
:040B6200631A80D1C1
:010B6600226C
:040B67008A3C8B3DFC
:100B6B00120E45AA3EEAD394004028EA24FFFDE486
:100B7B0034FFFC7F027E00120BABAC3CAD3DCFCD06
:100B8B00CFCECCCE120967EF54012430FF120D6388
:030B9B001A80D2EB
:010B9E002234
:090F1300D2A0D2A1C2A0C2A12209
:070F2500C2A0D2A1D2A0225C
:020CBC00AD0782
:100CBE00E4FC74807E00A804088006CEA2E713CE62
:100CCE0013D8F8FFEDFBEF5B6003D38001C392A056
:080CDE00D2A1C2A10CBC08DA8E
:010CE60022EB
:100E2D00E4FFD2A0FEEF25E0FFD2A130A0034307DF
:070E3D0001C2A10EBE08EE88
:010E4400228B
:0A0EEB00EF24FF92A0D2A1C2A122C1
:0B0ECB00D2A0D2A1A2A0E433FFC2A17C
:010ED60022F9
:100D2D008F498D4A120F137FA0120CBC120ECBAF40
:100D3D0049120CBC120ECBAF4A120CBC120ECB02D8
:020D4D000F2570
:020C35008F4BE3
:100C3700120F137FA0120CBC120ECBAF4B120CBCC1
:100C4700120ECB120F137FA1120CBC120ECB120E79
:0D0C57002D8F4C7F01120EEB120F25AF4CBC
:010C6400226D
:100E86005389F0438901758A9C758CFFC28DD28C7B
:050E9600D2A9D2AF2239
:0E0D8A000C123F065B4F666D7D077F6F0040C9
:090F1C00AE0574092FF8A60622A7
:100A5600EF14B408005054900A6B75F003A4C583D4
:100A660025F0C58373020A83020A87020A8B020AEB
:100A76008F020A93020A9B020AA3020AABD2A4803F
:100A86000ED2A48012D2A48016D2A4801AC2A4D2F6
:100A9600A3D2A28016C2A4D2A3C2A2800EC2A4C2AE
:100AA600A3D2A28006C2A4C2A3C2A274122DF8E6E3
:030AB600F58022A6
:100DFB0074092508F8E6FDAF08120A560508E50840
:080E0B00C394094003750801BE
:010E130022BC
:0D0EBE00120DE07FCC120E147F44020E14C2
:100C6500120DE07FCC120E147FBE120E14120DA7CA
:100C75008F4D120DA7EFFEE54DFFFDAC06EC1208FA
:0B0C8500A5E4FBFA7980784112080317
:010C90002241
:0E0D9800012A000228000002260000012500AA
:050F3200007FF7DFFE67
:010F37002297
:0A0EF500C2A5E4F52AF528F529222C
:0A0EFF00752A018E288F29D2A52242
:0A0F0900E4F52AF528F529C2A52217
:100D0A00E52A601E0525E525C394014015E4F5256D
:100D1A00E529152970021528E52945287004F52AC0
:020D2A00C2A560
:010D2C0022A4
:100DE000D2B7C2B77FF7DFFED2B77F20DFFEA2B750
:0A0DF000E433F54E7FF7DFFEAF4E4F
:010DFA0022D6
:100E5B00C2AFC2B77E04DEFEEF24FF92B77E18DE70
:050E6B00FED2B7D2AF7A
:010E7000225F
:100DC400C2AFC2B77F02DFFED2B77F02DFFEA2B797
:0B0DD400E433FE7F18DFFED2AFAF0655
:010DDF0022F1
:020E1400AD0728
:100E1600E4FC7401A804088002C333D8FC5DFF1209
:060E26000E5B0CBC08ECA1
:010E2C0022A3
:100DA700E4FDFC120DC4EF600D7401A80408800275
:0C0DB700C333D8FC42050CBC08E9AF05B2
:010DC300220D
:1008000002091DEC5D046005E85904700302091338
:100810001208DE580460F6EC4860F2EC7004FDFE4D
:10082000FF22C860DB2481C85009C39860025006CB
:1008300002091A9850CAF582E9294B4A7005AB8221
:1008400002090975F0007C1A7880C3EF9BEE9AEDDF
:1008500099400DC3EF9BFFEE9AFEED99FDE842F043
:10086000DC23ACF0D0E0FFD0E0FED0E0FDAB822096
:10087000E7101BEB60BAEC2CFCEF33FFEE33FEED20
:1008800033FD0208F5E803F830E705C0F075F00025
:10089000EF2FFFEE33FEED33FD40B830E7C280AA04
:1008A00075F020800E75F010800575F0087D007ED3
:1008B000007F003392D530D5031209BCEC334010D1
:1008C000EF33FFEE33FEED33FDEC33FCD5F0ED22DC
:0E08D000E5F0247EA2D513CC92E7CDCEFF2218
:1008DE00E9D2E7C933E833F892D5EDD2E7CD33EC60
:0708EE0033FC5002B2D522D9
:1008F500EC30E7100FBF000C0EBE00080DBD000464
:100905000BEB6014A2D5EB13FCED92E7FD2274FF0F
:10091500FCFDFEFF22E480F8A2D574FF13FC7D8068
:03092500E480EF7C
:030000000209CA28
:0C09CA00787FE4F6D8FD75814E020A111A
:10092800BB010CE58229F582E5833AF583E0225084
:1009380006E92582F8E622BBFE06E92582F8E222CE
:0D094800E58229F582E5833AF583E49322E8
:10095500EF8DF0A4A8F0CF8CF0A428CE8DF0A42EB6
:02096500FE2270
:10096700BC000BBE0029EF8DF084FFADF022E4CC74
:10097700F875F008EF2FFFEE33FEEC33FCEE9DEC3D
:10098700984005FCEE9DFE0FD5F0E9E4CEFD22ED83
:10099700F8F5F0EE8420D21CFEADF075F008EF2FCD
:1009A700FFED33FD4007985006D5F0F222C398FDBE
:0509B7000FD5F0EA225B
:0E09BC00C3E49FFFE49EFEE49DFDE49CFC224C
:1009D600020C04E493A3F8E493A34003F68001F227
:1009E60008DFF48029E493A3F85407240CC8C33322
:1009F600C4540F4420C8834004F456800146F6DFF1
:100A0600E4800B0102040810204080900D8AE47EE9
:100A1600019360BCA3FF543F30E509541FFEE493E5
:100A2600A360010ECF54C025E060A840B8E493A3AC
:100A3600FAE493A3F8E493A3C8C582C8CAC583CAD7
:100A4600F0A3C8C582C8CAC583CADFE9DEE780BE8F
:010DA600004C
:00000001FF
