:100C0D00EFF4F5A0E4FEEFA806088002C313D8FCAC
:0F0C1D001392B4D2B6C2B60EBE08EBD2B5C2B5B2
:010C2C0022A5
:090D0700C2B67FCD120C0D80FE76
:100C9900EF1FAC0670011E4C600A7D027CEFDCFE82
:040CA900DDFC80EC02
:010CAD002224
:0C0CE6000A083F065B4F666D7D077F6FBC
:100AA900EF14B408005054900ABE75F003A4C5832E
:100AB90025F0C58373020AD6020ADA020ADE020A9F
:100AC900E2020AE6020AEE020AF6020AFED2A4804D
:100AD9000ED2A48012D2A48016D2A4801AC2A4D2A3
:100AE900A3D2A28016C2A4D2A3C2A2800EC2A4C25B
:100AF900A3D2A28006C2A4C2A3C2A274082DF8E69A
:030B0900F5802252
:060CD700C2A58F80D2A728
:080CDD007F027EEFDEFEDFFC6A
:010CE50022EC
:0A0CF300C2A6120CD7C2A7020CDD46
:100C2D00CFCDCFCECCCE1209C87C007D0A1209C81B
:040C3D00ED2430FF73
:0A0C4100D2A6120CD7C2A7020CDDE8
:100C8300AE07BE0104ED148006BE0209ED243F4405
:060C930080FF120CF322A9
:100CC3007F38120CF37F0C120CF37F06120CF37FA8
:040CD30001020CF31B
:0A0CFD00AC03120C83AF04020C419B
:060BEA008B2C8A2D892EE0
:100BF000120C83E4FDAB2CAA2DA92E8D82758300E7
:0C0C0000120989FF6006120C410D80E90A
:010C0C0022C5
:0C0BB7007F0AEA24FFFDE434FFFC7E000E
:080BC3008E288F298C2A8D2B4E
:100BCB007F017E00E4FBEBC3952BE52A6480F87470
:0E0BDB008098500AAC28AD291209B60B80E8AC
:010BE90022E9
:040C4B008A1B8B1C59
:100C4F00120C83AA1DEAD39400400D120BB7AC1BF4
:080C5F00AD1C120C2D1A80EDF2
:010C6700226A
:100B0C00120C83C3EA64809480400B7F2B120C413F
:100B1C008A178B18800E7F2D120C41C3E49BF5189D
:100B2C00E49AF517AA16EAD39400400D120BB7AC51
:090B3C0017AD18120C2D1A80ED02
:010B4500228D
:040B46008A208B2155
:100B4A00120C83AA22EAD3940040297F10120BB90F
:100B5A00AC20AD21CFCDCFCECCCE1209C8EF540FE9
:100B6A00FEC3940AEE5004243080022437FF120C8C
:040B7A00411A80D1CB
:010B7E002254
:040B7F008A258B2612
:100B8300120C83AA27EAD394004028EA24FFFDE449
:100B930034FFFC7F027E00120BC3AC25AD26CFCD04
:100BA300CFCECCCE1209C8EF54012430FF120C4132
:030BB3001A80D2D3
:010BB600221C
:10080000E4F52F7590FFC2932097137F14FE120C0E
:10081000993097FD7F147E00120C99752F01209658
:10082000147F147E00120C993096FD7F147E001206
:100830000C99752F052095147F147E00120C9930A9
:1008400095FD7F147E00120C99752F092094147F5A
:10085000147E00120C993094FD7F147E00120C99C6
:10086000752F0D7590FFC2922097147F147E001291
:100870000C993097FD7F147E00120C99752F022081
:1008800096147F147E00120C993096FD7F147E0022
:10089000120C99752F062095147F147E00120C9966
:1008A0003095FD7F147E00120C99752F0A20941448
:1008B0007F147E00120C993094FD7F147E00120C80
:1008C00099752F0E7590FFC2912097147F147E00AA
:1008D000120C993097FD7F147E00120C99752F032E
:1008E0002096147F147E00120C993096FD7F147EA2
:1008F00000120C99752F072095147F147E00120C9E
:10090000993095FD7F147E00120C99752F0B209461
:10091000147F147E00120C993094FD7F147E001217
:100920000C99752F0F7590FFC2902097147F147E3D
:1009300000120C993097FD7F147E00120C99752FD0
:10094000042096147F147E00120C993096FD7F14BB
:100950007E00120C99752F082095147F147E0012CA
:100960000C993095FD7F147E00120C99752F0C2088
:1009700094147F147E00120C993094FD7F147E0035
:08098000120C99752F10AF2F26
:01098800224C
:100CAE005389F0438901758A18758CFCC28DD28CDC
:050CBE00D2A9D2AF2213
:100C680075985043878053890F438920758BF37596
:0B0C78008DF3C2ABD28ED2AFD2AC2203
:080D10008F993099FDC2992270
:03000000020A1DD4
:0C0A1D00787FE4F6D8FD75812F020A6492
:10098900BB010CE58229F582E5833AF583E0225023
:1009990006E92582F8E622BBFE06E92582F8E2226D
:0D09A900E58229F582E5833AF583E4932287
:1009B600EF8DF0A4A8F0CF8CF0A428CE8DF0A42E55
:0209C600FE220F
:1009C800BC000BBE0029EF8DF084FFADF022E4CC13
:1009D800F875F008EF2FFFEE33FEEC33FCEE9DECDC
:1009E800984005FCEE9DFE0FD5F0E9E4CEFD22ED22
:1009F800F8F5F0EE8420D21CFEADF075F008EF2F6C
:100A0800FFED33FD4007985006D5F0F222C398FD5C
:050A18000FD5F0EA22F9
:100A2900020D07E493A3F8E493A34003F68001F2CF
:100A390008DFF48029E493A3F85407240CC8C333CE
:100A4900C4540F4420C8834004F456800146F6DF9D
:100A5900E4800B0102040810204080900CE6E47E3B
:100A6900019360BCA3FF543F30E509541FFEE49392
:100A7900A360010ECF54C025E060A840B8E493A359
:100A8900FAE493A3F8E493A3C8C582C8CAC583CA84
:100A9900F0A3C8C582C8CAC583CADFE9DEE780BE3C
:010CF2000001
:00000001FF
