:090D8000436C6F636B21003A0023
:090CF30001240F01260201250075
:100B0C00120D49120D347BFF7A0D79807D017F0126
:100B1C00120C95E525FB7A007516027D017F0212F9
:100B2C000CD67BFF7A0D79877D037F02120C95E53D
:100B3C0026FB7A007516027D047F02120CD67BFF11
:100B4C007A0D79877D067F02120C95E524FB7A00DD
:0C0B5C007516027D077F02120CD680B7D0
:03000B00020B687D
:040B6800C0E0C0D059
:100B6C00758A18758CFC0523E52370020522C39445
:100B7C00E8E5229403402F7522007523001524E527
:100B8C0024D39400502075243B1526E52694005060
:100B9C000875263B152575253BE526D39402500692
:060BAC0075220075231400
:050BB200D0D0D0E032BC
:100D1F00EF1FAC0670011E4C600A7D027CEFDCFEFB
:040D2F00DDFC80EC7B
:010D3300229D
:0C0CFC000A083F065B4F666D7D077F6FA6
:100AA900EF14B408005054900ABE75F003A4C5832E
:100AB90025F0C58373020AD6020ADA020ADE020A9F
:100AC900E2020AE6020AEE020AF6020AFED2A4804D
:100AD9000ED2A48012D2A48016D2A4801AC2A4D2A3
:100AE900A3D2A28016C2A4D2A3C2A2800EC2A4C25B
:100AF900A3D2A28006C2A4C2A3C2A274082DF8E69A
:030B0900F5802252
:060D5D00C2A58F80D2A7A1
:080D63007F027EEFDEFEDFFCE3
:010D6B002265
:0A0D6C00C2A6120D5DC2A7020D63BE
:100CB800CFCDCFCECCCE1209C87C007D0A1209C890
:040CC800ED2430FFE8
:0A0CCC00D2A6120D5DC2A7020D634F
:100D0900AE07BE0104ED148006BE0209ED243F447E
:060D190080FF120D6C22A8
:100D49007F38120D6C7F0C120D6C7F06120D6C7FB3
:040D590001020D6C1A
:0A0D7600AC03120D09AF04020CCC0F
:060C95008B128A13891482
:100C9B00120D09E4FDAB12AA13A9148D8275830002
:0C0CAB00120989FF6006120CCC0D80E9D4
:010CB700221A
:0C0C62007F0AEA24FFFDE434FFFC7E0062
:080C6E008E178F188C198D1AE6
:100C76007F017E00E4FBEBC3951AE5196480F874E6
:0E0C86008098500AAC17AD181209B60B80E822
:010C9400223D
:040CD6008A148B15DC
:100CDA00120D09AA16EAD39400400D120C62AC1444
:080CEA00AD15120CB81A80EDE3
:010CF20022DF
:100BB700120D09C3EA64809480400B7F2B120CCC82
:100BC7008A208B21800E7F2D120CCCC3E49BF5214C
:100BD700E49AF520AA1FEAD39400400D120C62ACE8
:090BE70020AD21120CB81A80EDBA
:010BF00022E2
:040BF1008A298B2A98
:100BF500120D09AA2BEAD3940040297F10120C6428
:100C0500AC29AD2ACFCDCFCECCCE1209C8EF540F2B
:100C1500FEC3940AEE5004243080022437FF120CE0
:040C2500CC1A80D194
:010C290022A8
:040C2A008A2E8B2F54
:100C2E00120D09AA30EAD394004028EA24FFFDE40D
:100C3E0034FFFC7F027E00120C6EAC2EAD2FCFCD9A
:100C4E00CFCECCCE1209C8EF54012430FF120CCCFB
:030C5E001A80D227
:010C61002270
:10080000E4F5317590FFC2932097137F14FE120D0B
:100810001F3097FD7F147E00120D1F753101209649
:10082000147F147E00120D1F3096FD7F147E00127F
:100830000D1F7531052095147F147E00120D1F3099
:1008400095FD7F147E00120D1F7531092094147FD1
:10085000147E00120D1F3094FD7F147E00120D1FB8
:1008600075310D7590FFC2922097147F147E00128F
:100870000D1F3097FD7F147E00120D1F7531022071
:1008800096147F147E00120D1F3096FD7F147E009B
:10089000120D1F7531062095147F147E00120D1F56
:1008A0003095FD7F147E00120D1F75310A209414BF
:1008B0007F147E00120D1F3094FD7F147E00120DF8
:1008C0001F75310E7590FFC2912097147F147E0022
:1008D000120D1F3097FD7F147E00120D1F7531031E
:1008E0002096147F147E00120D1F3096FD7F147E1B
:1008F00000120D1F7531072095147F147E00120D14
:100900001F3095FD7F147E00120D1F75310B209452
:10091000147F147E00120D1F3094FD7F147E001290
:100920000D1F75310F7590FFC2902097147F147EB4
:1009300000120D1F3097FD7F147E00120D1F7531C0
:10094000042096147F147E00120D1F3096FD7F1434
:100950007E00120D1F7531082095147F147E001241
:100960000D1F3095FD7F147E00120D1F75310C2078
:1009700094147F147E00120D1F3094FD7F147E00AE
:08098000120D1F753110AF319B
:01098800224C
:100D34005389F0438901758A18758CFCC28DD28C55
:050D4400D2A9D2AF228C
:03000000020A1DD4
:0C0A1D00787FE4F6D8FD758131020A6490
:10098900BB010CE58229F582E5833AF583E0225023
:1009990006E92582F8E622BBFE06E92582F8E2226D
:0D09A900E58229F582E5833AF583E4932287
:1009B600EF8DF0A4A8F0CF8CF0A428CE8DF0A42E55
:0209C600FE220F
:1009C800BC000BBE0029EF8DF084FFADF022E4CC13
:1009D800F875F008EF2FFFEE33FEEC33FCEE9DECDC
:1009E800984005FCEE9DFE0FD5F0E9E4CEFD22ED22
:1009F800F8F5F0EE8420D21CFEADF075F008EF2F6C
:100A0800FFED33FD4007985006D5F0F222C398FD5C
:050A18000FD5F0EA22F9
:100A2900020B0CE493A3F8E493A34003F68001F2CC
:100A390008DFF48029E493A3F85407240CC8C333CE
:100A4900C4540F4420C8834004F456800146F6DF9D
:100A5900E4800B0102040810204080900CF3E47E2E
:100A6900019360BCA3FF543F30E509541FFEE49392
:100A7900A360010ECF54C025E060A840B8E493A359
:100A8900FAE493A3F8E493A3C8C582C8CAC583CA84
:100A9900F0A3C8C582C8CAC583CADFE9DEE780BE3C
:010D080000EA
:00000001FF
