:100C61002020202020005361766564004C6F616470
:030C7100656400B7
:070CB60001187B0219000088
:10080000120C4D1209F0751B008F1CE51C6401458C
:100810001B7022051AE51A70020519750C05FBAA52
:10082000197D017F01120BED7BFF7A0C79617D014F
:100830007F02120B8AE51C6402451B7023E51A1522
:100840001A70021519750C05AB1AAA197D017F01E2
:10085000120BED7BFF7A0C79617D017F02120B8A0E
:10086000E51C6403451B702CFCAD1AFF120BAD7F19
:100870000A7E00120C38E519FD7C007F01120BADD9
:100880007F0A7E00120C387BFF7A0C79677D017F2E
:1008900002120B8AE51C6404451B6003020803FF77
:1008A000120B2F7519008F1A7F01120B2FEFFEEE1E
:1008B0004219750C05AB1AAA197D017F01120BEDC7
:1008C0007BFF7A0C796D7D017F02120B8A0208038F
:100C3800EF1FAC0670011E4C600A7D027CEFDCFEE3
:040C4800DDFC80EC63
:010C4C002285
:1009F000E4F50820B1137F14FE120C3830B1FD7FEE
:100A0000147E00120C3875080120B0147F147E008B
:100A1000120C3830B0FD7F147E00120C38750802BD
:100A200020B2147F147E00120C3830B2FD7F147E89
:100A300000120C3875080320B3147F147E00120CCA
:100A40003830B3FD7F147E00120C38750804AF08EF
:010A50002283
:060C7400C2A58F80D2A78B
:080C7A007F027EEFDEFEDFFCCD
:010C8200224F
:0A0C8F00C2A6120C74C2A7020C7A70
:100BCF00CFCDCFCECCCE12090F7C007D0A12090FEC
:040BDF00ED2430FFD2
:0A0BE300D2A6120C74C2A7020C7A0D
:100C2200AE07BE0104ED148006BE0209ED243F4466
:060C320080FF120C8F226E
:100C4D007F38120C8F7F0C120C8F7F06120C8F7F4A
:040C5D0001020C8FF5
:0A0C9900AC03120C22AF04020BE3BF
:060B8A008B088A09890AAC
:100B9000120C22E4FDAB08AA09A90A8D8275830014
:0C0BA0001208D0FF6006120BE30D80E984
:010BAC002226
:0C0AFC007F0AEA24FFFDE434FFFC7E00CA
:080B08008E0D8F0E8C0F8D1075
:100B10007F017E00E4FBEBC39510E50F6480F87461
:0E0B20008098500AAC0DAD0E1208FD0B80E857
:010B2E0022A4
:040BED008A0A8B0BDA
:100BF100120C22AA0CEAD39400400D120AFCAC0A92
:080C0100AD0B120BCF1A80EDC0
:010C090022C8
:100A5100120C22C3EA64809480400B7F2B120BE3BB
:100A61008A168B17800E7F2D120BE3C3E49BF517BB
:100A7100E49AF516AA15EAD39400400D120AFCACCB
:090A810016AD17120BCF1A80ED1F
:010A8A002249
:040A8B008A208B2111
:100A8F00120C22AA22EAD3940040297F10120AFEE8
:100A9F00AC20AD21CFCDCFCECCCE12090FEF540F5E
:100AAF00FEC3940AEE5004243080022437FF120B49
:040ABF00E31A80D1E5
:010AC3002210
:040AC4008A258B26CE
:100AC800120C22AA27EAD394004028EA24FFFDE466
:100AD80034FFFC7F027E00120B08AC25AD26CFCD7B
:100AE800CFCECCCE12090FEF54012430FF120BE306
:030AF8001A80D28F
:010AFB0022D8
:090CAD00D2A0D2A1C2A0C2A12272
:070CBE00C2A0D2A1D2A022C6
:020B5F00AD07E0
:100B6100E4FC74807E00A804088006CEA2E713CEC0
:100B710013D8F8FFEDFBEF5B6003D38001C392A0B4
:080B8100D2A1C2A10CBC08DAEC
:010B89002249
:100C0A00E4FFD2A0FEEF25E0FFD2A130A003430704
:070C1A0001C2A10EBE08EEAD
:010C210022B0
:0A0CA300EF24FF92A0D2A1C2A1220B
:0B0C8300D2A0D2A1A2A0E433FFC2A1C6
:010C8E002243
:100BAD008F088D09120CAD7FA0120B5F120C83AF55
:100BBD0008120B5F120C83AF09120B5F120C83022C
:020BCD000CBE5C
:020B2F008F082D
:100B3100120CAD7FA0120B5F120C83AF08120B5F7A
:100B4100120C83120CAD7FA1120B5F120C83120CDD
:0D0B51000A8F097F01120CA3120CBEAF0920
:010B5E002274
:030000000209648E
:0C096400787FE4F6D8FD7581270209AB0E
:1008D000BB010CE58229F582E5833AF583E02250DD
:1008E00006E92582F8E622BBFE06E92582F8E22227
:0D08F000E58229F582E5833AF583E4932241
:1008FD00EF8DF0A4A8F0CF8CF0A428CE8DF0A42E0F
:02090D00FE22C8
:10090F00BC000BBE0029EF8DF084FFADF022E4CCCC
:10091F00F875F008EF2FFFEE33FEEC33FCEE9DEC95
:10092F00984005FCEE9DFE0FD5F0E9E4CEFD22EDDB
:10093F00F8F5F0EE8420D21CFEADF075F008EF2F25
:10094F00FFED33FD4007985006D5F0F222C398FD16
:05095F000FD5F0EA22B3
:10097000020800E493A3F8E493A34003F68001F295
:1009800008DFF48029E493A3F85407240CC8C33388
:10099000C4540F4420C8834004F456800146F6DF57
:1009A000E4800B0102040810204080900CB6E47E25
:1009B000019360BCA3FF543F30E509541FFEE4934C
:1009C000A360010ECF54C025E060A840B8E493A313
:1009D000FAE493A3F8E493A3C8C582C8CAC583CA3E
:1009E000F0A3C8C582C8CAC583CADFE9DEE780BEF6
:010CBD000036
:00000001FF
