:030E9600013B001D
:100BC300121141121147E4FF12114D121095EF60FB
:100BD300FA1211508F391211538F38E538B4160CAD
:100BE300E4FF12114DE4FD7F01120C35E538B40C1E
:100BF3000C7F1912114D7D017F01120C35E538B4BC
:100C0300180C7F3212114D7D027F01120C35E5382D
:100C1300B45E0C7F4B12114D7D037F01120C35E541
:100C230038B408A77F6412114D7D047F01120C357F
:020C33008099A6
:10104000EF1FAC0670011E4C600A7D027CEFDCFED7
:04105000DDFC80EC57
:011054002279
:05112F00AF51E4F55191
:011134002298
:100DB100E4FF20B1087F14FE1210407F0120B0092A
:100DC1007F147E001210407F0220B2097F147E0042
:100DD1001210407F0320B3097F147E001210407F60
:010DE100040D
:010DE20022EE
:100C9800854F50120DB18F4FE550B40107E54F70E5
:100CA80003755101E550B40207E54F700375510211
:100CB800E550B40307E54F7003755103E550B404DC
:0A0CC80007E54F7003755104AF51AA
:010CD20022FF
:06107900C2A58F80D2A782
:08107F007F027EEFDEFEDFFCC4
:011087002246
:0A10D100C2A6121079C2A702107F18
:100F2400CFCDCFCECCCE1209677C007D0A120967E3
:040F3400ED2430FF79
:0A0F3800D2A6121079C2A702107FA2
:10101400AE07BE0104ED148006BE0209ED243F4470
:0610240080FF1210D12232
:101055007F381210D17F0C1210D17F061210D17F6C
:04106500010210D1A3
:0A10DB00AC03121014AF04020F382A
:060EBC008B528A53895499
:100EC200121014E4FDAB52AA53A9548D827583000B
:0C0ED200120928FF6006120F380D80E99D
:010EDE0022F1
:0C0D7E007F0AEA24FFFDE434FFFC7E0045
:080D8A008E4B8F4C8C4D8D4EF9
:100D92007F017E00E4FBEBC3954EE54D6480F87461
:0E0DA2008098500AAC4BAD4C1209550B80E8FE
:010DB0002220
:040F42008A3E8B3F19
:100F4600121014AA40EAD39400400D120D7EAC3E56
:080F5600AD3F120F241A80EDDB
:010F5E002270
:100CD300121014C3EA64809480400B7F2B120F38E8
:100CE3008A2F8B30800E7F2D120F38C3E49BF53093
:100CF300E49AF52FAA2EEAD39400400D120D7EAC90
:090D03002FAD30120F241A80ED0F
:010D0C0022C4
:040D0D008A438B4446
:100D1100121014AA45EAD3940040297F10120D80C5
:100D2100AC43AD44CFCDCFCECCCE120967EF540F3B
:100D3100FEC3940AEE5004243080022437FF120FC0
:040D4100381A80D10B
:010D4500228B
:040D46008A488B4903
:100D4A00121014AA4AEAD394004028EA24FFFDE4C8
:100D5A0034FFFC7F027E00120D8AAC48AD49CFCD2C
:100D6A00CFCECCCE120967EF54012430FF120F38D0
:030D7A001A80D20A
:010D7D002253
:09110D00D2A0D2A1C2A0C2A1220D
:07112800C2A0D2A1D2A02257
:020E6B00AD07D1
:100E6D00E4FC74807E00A804088006CEA2E713CEB1
:100E7D0013D8F8FFEDFBEF5B6003D38001C392A0A5
:080E8D00D2A1C2A10CBC08DADD
:010E9500223A
:100FE500E4FFD2A0FEEF25E0FFD2A130A003430726
:070FF50001C2A10EBE08EECF
:010FFC0022D2
:0A10E500EF24FF92A0D2A1C2A122C5
:0B10AF00D2A0D2A1A2A0E433FFC2A196
:0110BA002213
:100F02008F558D5612110D7FA0120E6B1210AFAFBE
:100F120055120E6B1210AFAF56120E6B1210AF02BB
:020F2200112894
:020DE3008F5728
:100DE50012110D7FA0120E6B1210AFAF57120E6BC2
:100DF5001210AF12110D7FA1120E6B1210AF120F50
:0D0E0500E58F587F011210E5121128AF583B
:010E120022BD
:0E0E99000C123F065B4F666D7D077F6F0040B9
:09111600AE0574092FF8A60622AB
:100C3500EF14B408005054900C4A75F003A4C58312
:100C450025F0C58373020C62020C66020C6A020C65
:100C55006E020C72020C7A020C82020C8AD2A480FB
:100C65000ED2A48012D2A48016D2A4801AC2A4D215
:100C7500A3D2A28016C2A4D2A3C2A2800EC2A4C2CD
:100C8500A3D2A28006C2A4C2A3C2A274122DF8E602
:030C9500F58022C5
:100FB30074092508F8E6FDAF08120C350508E508A5
:080FC300C39409400375080105
:010FCB002203
:0D108800120F987FCC120FCC7F44020FCCCA
:100E1300120F987FCC120FCC7FBE120FCC120F5F34
:100E23008F5B120F5FEFFEE55BFFFDAC06EC120874
:0B0E3300A5E4FBFA7980784112080367
:010E3E002291
:0E0EA70001360002340000023200000131006A
:05113500007FF7DFFE62
:01113A002292
:0A10EF00C2A5E4F536F534F535220C
:0A10F9007536018E348F35D2A52222
:0A110300E4F536F534F535C2A522F7
:100EDF00E536601E0531E531C394014015E4F53167
:100EEF00E535153570021534E53545347004F536A2
:020EFF00C2A58A
:010F010022CD
:100F9800D2B7C2B77FF7DFFED2B77F20DFFEA2B796
:0A0FA800E433F55C7FF7DFFEAF5C79
:010FB200221C
:10102A00C2AFC2B77E04DEFEEF24FF92B77E18DE9F
:05103A00FED2B7D2AFA9
:01103F00228E
:100F7C00C2AFC2B77F02DFFED2B77F02DFFEA2B7DD
:0B0F8C00E433FE7F18DFFED2AFAF069B
:010F97002237
:020FCC00AD076F
:100FCE00E4FC7401A804088002C333D8FC5DFF1250
:060FDE00102A0CBC08EC17
:010FE40022EA
:100F5F00E4FDFC120F7CEF600D7401A80408800201
:0C0F6F00C333D8FC42050CBC08E9AF05F8
:010F7B002253
:0B10BB00D288C289D2A8D2AFD2B822DE
:100FFD0053890F438910758B9C758DFFC28FD28ECF
:07100D00D2ABD2AFC2BB223F
:101069005389F0438901E4F58AF58CC28DC28C223B
:0B10C600AD07AC068C8CAF058F8A22B2
:09111F00AF8CEFFEAD8AEDFF225A
:06113B00EF24FF928C225C
:060EB500015A0001590082
:06114100120FFDD28E2208
:03114D008F592295
:03001B00020E3F93
:100E3F00C0E0C0D0758B18758DFC055AE55AC39468
:100E4F00644003755A00E55AC395595006D290C2B3
:0C0E5F00A08004C290D2A0D0D0D0E0321D
:061147001210690210BB4A
:0D109500E5256006E4F5257F01227F00229D
:0D10A200E5236006E4F5237F01227F002294
:03115000AF2222A9
:03115300AF2122A7
:030003000209CA25
:1009CA00C0E0C0F0C083C082C0D075D000C000C0F3
:1009DA0001C002C003C004C005C006C007E51E70FE
:1009EA000F75A001FFFE1210C67F0112113B805540
:1009FA00E51E6401705575A00212111F8E1F8F200B
:100A0A00E4FFFE1210C6D3E52094A6E51F942E40FB
:100A1A0013E520948EE51F9432500975A003751EC4
:100A2A0002020B1CD3E520948CE51F94264013E5A3
:100A3A00209474E51F942A500975A00475230102B5
:100A4A000B1475A005751E01020B1CE51E640260DD
:100A5A0003020B1C75A00612111F8E1F8F20E4FFC4
:100A6A00FE1210C6D3E5209414E51F9402402FE528
:100A7A002094FCE51F9405502575A007E52413135F
:100A8A0013541F2426F8C000E6FFE5245407FE7419
:100A9A0001A806088002C333D8FCF45F8037D3E587
:100AAA00209426E51F94064033E520940EE51F9412
:100ABA000A502975A008E524131313541F2426F895
:100ACA00C000E6FFE5245407FE7401A80608800268
:100ADA00C333D8FC4FD000F60524800975A00975E8
:100AEA002400751E01E524C39420402675A00A75CA
:100AFA002400E527F4B52612E529F4B5280C75A0DB
:100B0A000B852622852821752501E4FF12113B75E4
:100B1A001E00D007D006D005D004D003D002D001E1
:0D0B2A00D000D0D0D082D083D0F0D0E03207
:1008000002091DEC5D046005E85904700302091338
:100810001208DE580460F6EC4860F2EC7004FDFE4D
:10082000FF22C860DB2481C85009C39860025006CB
:1008300002091A9850CAF582E9294B4A7005AB8221
:1008400002090975F0007C1A7880C3EF9BEE9AEDDF
:1008500099400DC3EF9BFFEE9AFEED99FDE842F043
:10086000DC23ACF0D0E0FFD0E0FED0E0FDAB822096
:10087000E7101BEB60BAEC2CFCEF33FFEE33FEED20
:1008800033FD0208F5E803F830E705C0F075F00025
:10089000EF2FFFEE33FEED33FD40B830E7C280AA04
:1008A00075F020800E75F010800575F0087D007ED3
:1008B000007F003392D530D5031209BCEC334010D1
:1008C000EF33FFEE33FEED33FDEC33FCD5F0ED22DC
:0E08D000E5F0247EA2D513CC92E7CDCEFF2218
:1008DE00E9D2E7C933E833F892D5EDD2E7CD33EC60
:0708EE0033FC5002B2D522D9
:1008F500EC30E7100FBF000C0EBE00080DBD000464
:100905000BEB6014A2D5EB13FCED92E7FD2274FF0F
:10091500FCFDFEFF22E480F8A2D574FF13FC7D8068
:03092500E480EF7C
:03000000020B37B9
:0C0B3700787FE4F6D8FD75815C020B7E2F
:10092800BB010CE58229F582E5833AF583E0225084
:1009380006E92582F8E622BBFE06E92582F8E222CE
:0D094800E58229F582E5833AF583E49322E8
:10095500EF8DF0A4A8F0CF8CF0A428CE8DF0A42EB6
:02096500FE2270
:10096700BC000BBE0029EF8DF084FFADF022E4CC74
:10097700F875F008EF2FFFEE33FEEC33FCEE9DEC3D
:10098700984005FCEE9DFE0FD5F0E9E4CEFD22ED83
:10099700F8F5F0EE8420D21CFEADF075F008EF2FCD
:1009A700FFED33FD4007985006D5F0F222C398FDBE
:0509B7000FD5F0EA225B
:0E09BC00C3E49FFFE49EFEE49DFDE49CFC224C
:100B4300020BC3E493A3F8E493A34003F68001F2FA
:100B530008DFF48029E493A3F85407240CC8C333B3
:100B6300C4540F4420C8834004F456800146F6DF82
:100B7300E4800B0102040810204080900E96E47E6E
:100B8300019360BCA3FF543F30E509541FFEE49377
:100B9300A360010ECF54C025E060A840B8E493A33E
:100BA300FAE493A3F8E493A3C8C582C8CAC583CA69
:100BB300F0A3C8C582C8CAC583CADFE9DEE780BE21
:010EBB000036
:00000001FF
