:0C0F3900446174653A0054696D653A002B
:100C1700120AFEE518FB7A00750C027D067F0112A9
:100C27000EB97B2D7D087F01120F4FE519FB7A0066
:100C3700750C027D097F01120EB97B2D7D0B7F019B
:100C4700120F4FE51AFB7A00750C027D0C7F01121B
:100C57000EB9E51BFB7A00750C027D067F02120EAA
:100C6700B97B3A7D087F02120F4FE51CFB7A0075AE
:100C77000C027D097F02120EB97B3A7D0B7F0212AF
:100C87000F4FE51DFB7A00750C027D0C7F02020EEB
:010C9700B9A3
:040F6800E4F5A022EA
:100CF500120F16120F637BFF7A0F79397D017F0181
:100D0500120E787BFF7A0F793F7D017F02120E78F4
:100D15001209891208008F2AE52AB40111E5297004
:100D2500057529018008E529B40103E4F529E529BC
:100D3500146008047008120C178003120F687F6492
:070D45007E00120EEC80CCD1
:100EEC00EF1FAC0670011E4C600A7D027CEFDCFE2D
:040EFC00DDFC80ECAD
:010F000022CE
:060F2A00C2A58F80D2A7D2
:080F30007F027EEFDEFEDFFC14
:010F38002296
:0A0F4500C2A6120F2AC2A7020F3045
:100E9B00CFCDCFCECCCE120AA97C007D0A120AA9E7
:040EAB00ED2430FF03
:0A0EAF00D2A6120F2AC2A7020F30CC
:100ED600AE07BE0104ED148006BE0209ED243F44B0
:060EE60080FF120F4522FF
:100F16007F38120F457F0C120F457F06120F457F53
:040F260001020F4570
:0A0F4F00AC03120ED6AF04020EAF81
:060E78008B088A09890ABB
:100E7E00120ED6E4FDAB08AA09A90A8D827583006D
:0C0E8E00120A6AFF6006120EAF0D80E928
:010E9A002235
:0C0E45007F0AEA24FFFDE434FFFC7E007D
:080E51008E0D8F0E8C0F8D1029
:100E59007F017E00E4FBEBC39510E50F6480F87415
:0E0E69008098500AAC0DAD0E120A970B80E86F
:010E77002258
:040EB9008A0A8B0B0B
:100EBD00120ED6AA0CEAD39400400D120E45AC0AC0
:080ECD00AD0B120E9B1A80ED23
:010ED50022FA
:100D9A00120ED6C3EA64809480400B7F2B120EAFEA
:100DAA008A168B17800E7F2D120EAFC3E49BF517A0
:100DBA00E49AF516AA15EAD39400400D120E45AC32
:090DCA0016AD17120E9B1A80ED04
:010DD30022FD
:040DD4008A218B22C3
:100DD800120ED6AA23EAD3940040297F10120E4798
:100DE800AC21AD22CFCDCFCECCCE120AA9EF540F75
:100DF800FEC3940AEE5004243080022437FF120EFA
:040E0800AF1A80D1CC
:010E0C0022C3
:040E0D008A268B277F
:100E1100120ED6AA28EAD394004028EA24FFFDE462
:100E210034FFFC7F027E00120E51AC26AD27CFCDE0
:100E3100CFCECCCE120AA9EF54012430FF120EAF4F
:030E41001A80D242
:010E4400228B
:10080000E4F5087590FFC2932097137F14FE120E33
:10081000EC3097FD7F147E00120EEC7508012096D7
:10082000147F147E00120EEC3096FD7F147E0012B1
:100830000EEC7508052095147F147E00120EEC3026
:1008400095FD7F147E00120EEC7508092094147F2C
:10085000147E00120EEC3094FD7F147E00120EEC1C
:1008600075080D7590FFC2922097147F147E0012B8
:100870000EEC3097FD7F147E00120EEC75080220FE
:1008800096147F147E00120EEC3096FD7F147E00CD
:10089000120EEC7508062095147F147E00120EECE3
:1008A0003095FD7F147E00120EEC75080A2094141A
:1008B0007F147E00120EEC3094FD7F147E00120E29
:1008C000EC75080E7590FFC2912097147F147E007E
:1008D000120EEC3097FD7F147E00120EEC750803AB
:1008E0002096147F147E00120EEC3096FD7F147E4D
:1008F00000120EEC7508072095147F147E00120E6E
:10090000EC3095FD7F147E00120EEC75080B2094E0
:10091000147F147E00120EEC3094FD7F147E0012C2
:100920000EEC75080F7590FFC2902097147F147E0F
:1009300000120EEC3097FD7F147E00120EEC75084D
:10094000042096147F147E00120EEC3096FD7F1466
:100950007E00120EEC7508082095147F147E00129C
:100960000EEC3095FD7F147E00120EEC75080C2005
:1009700094147F147E00120EEC3094FD7F147E00E0
:08098000120EEC750810AF081F
:01098800224C
:100F01005389F0438901758A18758CFCC28DD28C86
:050F1100D2A9D2AF22BD
:090F590007181806060C0000053B
:050F6300C2B5C2B62278
:060C980025F0FDEC3EFC1E
:060C9E008C088D09AB0774
:100CA400D2B5E4FD74017E00A805088005C333CEE7
:100CB40033CED8F9FFEBF582EF558224FF92B4D2FC
:100CC400B6C2B60DBD08DDE4FD74017E00A80508BA
:100CD4008005C333CE33CED8F9FFE5085EFEE509BF
:100CE4005F4E24FF92B4D2B6C2B60DBD08DBC2B5C6
:010CF40022DD
:020D4C00AD07F1
:100D4E00E4F9430501D2B5FB74017E00A8030880C7
:100D5E0005C333CE33CED8F9FFEDF582EF5582249D
:100D6E00FF92B4C2B6D2B60BBB08DDE4FBC2B6D25C
:100D7E00B630B40D7401A803088002C333D8FC4208
:0B0D8E00010BBB08E8C2B5C2B4AF0106
:010D99002237
:10098900E4FDFC7F8E120C9EE51875F00A8475F063
:1009990010A4FFAEF0E51875F00A84EF7F8C120CF5
:1009A90098E51975F00A8475F010A4FFAEF0E51901
:1009B90075F00A847C00EF7F88120C98E51A75F0AF
:1009C9000A8475F010A4FFAEF0E51A75F00A847C6C
:1009D90000EF25F0FDEC3EFC7F86120C9EE51B75B1
:1009E900F00A8475F010A4FFAEF0E51B75F00A84D7
:1009F9007C00EF25F0FDEC3EFC7F84120C9EE51C8B
:100A090075F00A8475F010A4FFAEF0E51C75F00AC4
:100A1900847C00EF25F0FDEC3EFC7F82120C9EE504
:100A29001D75F00A8475F010A4FFAEF0E51D75F090
:100A39000A847C00EF25F0FDEC3EFC7F80120C9EC1
:100A4900E51E75F00A8475F010A4FFAEF0E51E7579
:100A5900F00A847C00EF25F0FDEC3EFC7F8A020C55
:010A69009EEE
:100AFE007F8C120D4CEFC4540F75F00AA4FEEF5408
:100B0E000F2EF5187F88120D4CEFC4540F75F00A96
:100B1E00A4FEEF540F2EF5197F86120D4CEFC45420
:100B2E000F75F00AA4FEEF540F2EF51A7F84120DE6
:100B3E004CEFC4540F75F00AA4FEEF540F2EF51BA4
:100B4E007F82120D4CEFC4540F75F00AA4FEEF54C1
:100B5E000F2EF51C7F80120D4CEFC4540F75F00A4A
:100B6E00A4FEEF540F2EF51D7F8A120D4CEFC454C8
:0C0B7E000F75F00AA4FEEF540F2EF51EB8
:010B8A002248
:03000000020B8B65
:0C0B8B00787FE4F6D8FD75812A020BD2B9
:100A6A00BB010CE58229F582E5833AF583E0225041
:100A7A0006E92582F8E622BBFE06E92582F8E2228B
:0D0A8A00E58229F582E5833AF583E49322A5
:100A9700EF8DF0A4A8F0CF8CF0A428CE8DF0A42E73
:020AA700FE222D
:100AA900BC000BBE0029EF8DF084FFADF022E4CC31
:100AB900F875F008EF2FFFEE33FEEC33FCEE9DECFA
:100AC900984005FCEE9DFE0FD5F0E9E4CEFD22ED40
:100AD900F8F5F0EE8420D21CFEADF075F008EF2F8A
:100AE900FFED33FD4007985006D5F0F222C398FD7B
:050AF9000FD5F0EA2218
:100B9700020CF5E493A3F8E493A34003F68001F273
:100BA70008DFF48029E493A3F85407240CC8C3335F
:100BB700C4540F4420C8834004F456800146F6DF2E
:100BC700E4800B0102040810204080900F59E47E56
:100BD700019360BCA3FF543F30E509541FFEE49323
:100BE700A360010ECF54C025E060A840B8E493A3EA
:100BF700FAE493A3F8E493A3C8C582C8CAC583CA15
:100C0700F0A3C8C582C8CAC583CADFE9DEE780BECC
:010F6200008E
:00000001FF
