:100AB900120EAB753A32120F518F3B120B01E53B07
:100AC9006401702B053DE53D7003753A0AE53DB4B7
:100AD9000103753A19E53DB40203753A32E53DB4AF
:100AE9000303753A64E53DB40405E4F53AF53DAD13
:080AF9003D7F01120A5680BE88
:03000B00020C7C68
:100C7C00C0E0C0F0C0D0758A9C758CFF053CE53C8B
:100C8C0075F0648485F03CE53CC3953A5006D290EF
:0F0C9C00C2A08004C290D2A0D0D0D0F0D0E0325D
:100E9600EF1FAC0670011E4C600A7D027CEFDCFE83
:040EA600DDFC80EC03
:010EAA002225
:050F5100AF44E4F5448B
:010F56002278
:100C1A00E4FF20B1087F14FE120E967F0120B0096E
:100C2A007F147E00120E967F0220B2097F147E0086
:100C3A00120E967F0320B3097F147E00120E967F50
:010C4A0004A5
:010C4B002286
:100B0100854243120C1A8F42E543B40107E5427056
:100B110003754401E543B40207E5427003754402DD
:100B2100E543B40307E5427003754403E543B404A8
:0A0B310007E5427003754404AF4469
:010B3B002297
:060ED400C2A58F80D2A729
:080EDA007F027EEFDEFEDFFC6B
:010EE20022ED
:0A0EFC00C2A6120ED4C2A7020EDA3D
:100D8B00CFCDCFCECCCE1209677C007D0A1209677E
:040D9B00ED2430FF14
:0A0D9F00D2A6120ED4C2A7020EDA8B
:100E8000AE07BE0104ED148006BE0209ED243F4406
:060E900080FF120EFC229F
:100EC0007F38120EFC7F0C120EFC7F06120EFC7F88
:040ED00001020EFC11
:0A0F0600AC03120E80AF04020D9F31
:060D02008B458A4689477B
:100D0800120E80E4FDAB45AA46A9478D8275830083
:0C0D1800120928FF6006120D9F0D80E9F3
:010D240022AC
:0C0BE7007F0AEA24FFFDE434FFFC7E00DE
:080BF3008E3E8F3F8C408D41C6
:100BFB007F017E00E4FBEBC39541E5406480F87414
:0E0C0B008098500AAC3EAD3F1209550B80E8B0
:010C190022B8
:040DA9008A2D8B2ED6
:100DAD00120E80AA2FEAD39400400D120BE7AC2D42
:080DBD00AD2E120D8B1A80ED22
:010DC500220B
:100B3C00120E80C3EA64809480400B7F2B120D9FB1
:100B4C008A238B24800E7F2D120D9FC3E49BF524EA
:100B5C00E49AF523AA22EAD39400400D120BE7ACD9
:090B6C0023AD24120D8B1A80ED5B
:010B7500225D
:040B76008A328B3301
:100B7A00120E80AA34EAD3940040297F10120BE99E
:100B8A00AC32AD33CFCDCFCECCCE120967EF540FF6
:100B9A00FEC3940AEE5004243080022437FF120D5B
:040BAA009F1A80D13D
:010BAE002224
:040BAF008A378B38BE
:100BB300120E80AA39EAD394004028EA24FFFDE408
:100BC30034FFFC7F027E00120BF3AC37AD38CFCD80
:100BD300CFCECCCE120967EF54012430FF120D9F04
:030BE3001A80D2A3
:010BE60022EC
:090F3800D2A0D2A1C2A0C2A122E4
:070F4A00C2A0D2A1D2A02237
:020CD700AD0767
:100CD900E4FC74807E00A804088006CEA2E713CE47
:100CE90013D8F8FFEDFBEF5B6003D38001C392A03B
:080CF900D2A1C2A10CBC08DA73
:010D010022CF
:100E6800E4FFD2A0FEEF25E0FFD2A130A0034307A4
:070E780001C2A10EBE08EE4D
:010E7F002250
:0A0F1000EF24FF92A0D2A1C2A1229B
:0B0EF000D2A0D2A1A2A0E433FFC2A157
:010EFB0022D4
:100D48008F4B8D4C120F387FA0120CD7120EF0AFBC
:100D58004B120CD7120EF0AF4C120CD7120EF00239
:020D68000F4A30
:020C4C008F4DCA
:100C4E00120F387FA0120CD7120EF0AF4D120CD728
:100C5E00120EF0120F387FA1120CD7120EF0120ED8
:0D0C6E00688F4E7F01120F10120F4AAF4E1B
:010C7B002256
:100EAB005389F0438901758A9C758CFFC28DD28C56
:050EBB00D2A9D2AF2214
:0E0DC6000C123F065B4F666D7D077F6F00408D
:090F4100AE0574092FF8A6062282
:100A5600EF14B408005054900A6B75F003A4C583D4
:100A660025F0C58373020A83020A87020A8B020AEB
:100A76008F020A93020A9B020AA3020AABD2A4803F
:100A86000ED2A48012D2A48016D2A4801AC2A4D2F6
:100A9600A3D2A28016C2A4D2A3C2A2800EC2A4C2AE
:100AA600A3D2A28006C2A4C2A3C2A274122DF8E6E3
:030AB600F58022A6
:100E360074092508F8E6FDAF08120A560508E50804
:080E4600C39409400375080183
:010E4E002281
:0D0EE300120D6A7FCC120E4F7F44020E4F9D
:100CAB00120D6A7FCC120E4F7FBE120E4F120DE348
:100CBB008F4F120DE3EFFEE54FFFFDAC06EC120874
:0B0CCB00A5E4FBFA79807841120803D1
:010CD60022FB
:100D6A00D2B7C2B77549F7D549FDD2B7754920D56B
:100D7A0049FDA2B7E433F5487549F7D549FDAF48AF
:010D8A002246
:100E1C00C2AFC2B7754904D549FDEF24FF92B7752F
:0A0E2C004918D549FDD2B7D2AF2214
:100E0000C2AFC2B77F02DFFED2B77F02DFFEA2B75A
:0B0E1000E433FE7F18DFFED2AFAF0618
:010E1B0022B4
:020E4F00AE07EC
:100E5100E4FD7401A805088002C333D8FC5EFF12CB
:060E61000E1C0DBD08ECA3
:010E67002268
:100DE300E4FDFC120E00EF600D7401A804088002FC
:0C0DF300C333D8FC42050CBC08E9AF0576
:010DFF0022D1
:0E0DD400012A0002280000022600000125006E
:050F5700007FF7DFFE42
:010F5C002272
:0A0F1A00C2A5E4F52AF528F5292206
:0A0F2400752A018E288F29D2A5221C
:0A0F2E00E4F52AF528F529C2A522F2
:100D2500E52A601E0525E525C394014015E4F52552
:100D3500E529152970021528E52945287004F52AA5
:020D4500C2A545
:010D47002289
:1008000002091DEC5D046005E85904700302091338
:100810001208DE580460F6EC4860F2EC7004FDFE4D
:10082000FF22C860DB2481C85009C39860025006CB
:1008300002091A9850CAF582E9294B4A7005AB8221
:1008400002090975F0007C1A7880C3EF9BEE9AEDDF
:1008500099400DC3EF9BFFEE9AFEED99FDE842F043
:10086000DC23ACF0D0E0FFD0E0FED0E0FDAB822096
:10087000E7101BEB60BAEC2CFCEF33FFEE33FEED20
:1008800033FD0208F5E803F830E705C0F075F00025
:10089000EF2FFFEE33FEED33FD40B830E7C280AA04
:1008A00075F020800E75F010800575F0087D007ED3
:1008B000007F003392D530D5031209BCEC334010D1
:1008C000EF33FFEE33FEED33FDEC33FCD5F0ED22DC
:0E08D000E5F0247EA2D513CC92E7CDCEFF2218
:1008DE00E9D2E7C933E833F892D5EDD2E7CD33EC60
:0708EE0033FC5002B2D522D9
:1008F500EC30E7100FBF000C0EBE00080DBD000464
:100905000BEB6014A2D5EB13FCED92E7FD2274FF0F
:10091500FCFDFEFF22E480F8A2D574FF13FC7D8068
:03092500E480EF7C
:030000000209CA28
:0C09CA00787FE4F6D8FD75814F020A1119
:10092800BB010CE58229F582E5833AF583E0225084
:1009380006E92582F8E622BBFE06E92582F8E222CE
:0D094800E58229F582E5833AF583E49322E8
:10095500EF8DF0A4A8F0CF8CF0A428CE8DF0A42EB6
:02096500FE2270
:10096700BC000BBE0029EF8DF084FFADF022E4CC74
:10097700F875F008EF2FFFEE33FEEC33FCEE9DEC3D
:10098700984005FCEE9DFE0FD5F0E9E4CEFD22ED83
:10099700F8F5F0EE8420D21CFEADF075F008EF2FCD
:1009A700FFED33FD4007985006D5F0F222C398FDBE
:0509B7000FD5F0EA225B
:0E09BC00C3E49FFFE49EFEE49DFDE49CFC224C
:1009D600020AB9E493A3F8E493A34003F68001F274
:1009E60008DFF48029E493A3F85407240CC8C33322
:1009F600C4540F4420C8834004F456800146F6DFF1
:100A0600E4800B0102040810204080900DC6E47EAD
:100A1600019360BCA3FF543F30E509541FFEE493E5
:100A2600A360010ECF54C025E060A840B8E493A3AC
:100A3600FAE493A3F8E493A3C8C582C8CAC583CAD7
:100A4600F0A3C8C582C8CAC583CADFE9DEE780BE8F
:010DE2000010
:00000001FF
