:100A6100E4F508F509120B100509E50970020508FE
:100A7100750E03FBAA087D097F01120AC87F647EF7
:060A810000120AFB80E2F6
:100AFB00EF1FAC0670011E4C600A7D027CEFDCFE22
:040B0B00DDFC80ECA1
:010B0F0022C3
:0C0B33000A133F065B4F666D7D077F6F65
:10092000EF14B40800505490093575F003A4C58342
:1009300025F0C5837302094D0209510209550209C8
:100940005902095D02096502096D020975D2A48088
:100950000ED2A48012D2A48016D2A4801AC2A4D22D
:10096000A3D2A28016C2A4D2A3C2A2800EC2A4C2E5
:10097000A3D2A28006C2A4C2A3C2A274132DF8E619
:03098000F58022DD
:060B2400C2A58F80D2A7DC
:080B2A007F027EEFDEFEDFFC1E
:010B320022A0
:0A0B4000C2A6120B24C2A7020B2A62
:100AAA00CFCDCFCECCCE12083F7C007D0A12083FB4
:040ABA00ED2430FFF8
:0A0ABE00D2A6120B24C2A7020B2AD5
:100AE500AE07BE0104ED148006BE0209ED243F44A5
:060AF50080FF120B4022FD
:100B10007F38120B407F0C120B407F06120B407F78
:040B200001020B4083
:0A0B4A00AC03120AE5AF04020ABE74
:060A87008B2E8A2F89303E
:100A8D00120AE5E4FDAB2EAA2FA9308D82758300E5
:0C0A9D00120800FF6006120ABE0D80E97E
:010AA900222A
:0C0A2E007F0AEA24FFFDE434FFFC7E0098
:080A3A008E0F8F108C118D123C
:100A42007F017E00E4FBEBC39512E5116480F8742C
:0E0A52008098500AAC0FAD1012082D0B80E8F2
:010A60002273
:040AC8008A0C8B0DFC
:100ACC00120AE5AA0EEAD39400400D120A2EAC0CC1
:080ADC00AD0D120AAA1A80ED0B
:010AE40022EF
:10098300120AE5C3EA64809480400B7F2B120ABEEF
:100993008A228B23800E7F2D120ABEC3E49BF5238C
:1009A300E49AF522AA21EAD39400400D120A2EAC50
:0909B30022AD23120AAA1A80EDFC
:0109BC002218
:0409BD008A268B27D4
:1009C100120AE5AA28EAD3940040297F10120A30BE
:1009D100AC26AD27CFCDCFCECCCE12083FEF540FF2
:1009E100FEC3940AEE5004243080022437FF120A19
:0409F100BE1A80D1D9
:0109F50022DF
:0409F6008A2B8B2C91
:1009FA00120AE5AA2DEAD394004028EA24FFFDE46E
:100A0A0034FFFC7F027E00120A3AAC2BAD2CCFCD0C
:100A1A00CFCECCCE12083FEF54012430FF120ABECB
:030A2A001A80D25D
:010A2D0022A6
:030000000208945F
:0C089400787FE4F6D8FD7581300208DBA7
:10080000BB010CE58229F582E5833AF583E02250AD
:1008100006E92582F8E622BBFE06E92582F8E222F7
:0D082000E58229F582E5833AF583E4932211
:10082D00EF8DF0A4A8F0CF8CF0A428CE8DF0A42EDF
:02083D00FE2299
:10083F00BC000BBE0029EF8DF084FFADF022E4CC9D
:10084F00F875F008EF2FFFEE33FEEC33FCEE9DEC66
:10085F00984005FCEE9DFE0FD5F0E9E4CEFD22EDAC
:10086F00F8F5F0EE8420D21CFEADF075F008EF2FF6
:10087F00FFED33FD4007985006D5F0F222C398FDE7
:05088F000FD5F0EA2284
:1008A000020A61E493A3F8E493A34003F68001F203
:1008B00008DFF48029E493A3F85407240CC8C33359
:1008C000C4540F4420C8834004F456800146F6DF28
:1008D000E4800B0102040810204080900B33E47E7A
:1008E000019360BCA3FF543F30E509541FFEE4931D
:1008F000A360010ECF54C025E060A840B8E493A3E4
:10090000FAE493A3F8E493A3C8C582C8CAC583CA0E
:10091000F0A3C8C582C8CAC583CADFE9DEE780BEC6
:010B3F0000B5
:00000001FF
